:020000040800F2
:100000008042012041F80008D5FD0008E9FD000804
:10001000FDFD000811FE000825FE0008000000009C
:1000200000000000000000000000000039FE000891
:100030004DFE0008000000005BFE0008DD780008AF
:100040004D4300084D4300084D4300084D43000850
:100050004D4300084D430008ED770008F97700088C
:1000600005780008117800081D7800084D43000845
:100070004D4300084D4300084D4300084D43000820
:100080004D4300084D4300084D4300084D43000810
:100090004D4300084D4300084D43000829780008EF
:1000A000A568000831650008E16800084D430008B4
:1000B0004D4300081D690008416900084D430008D0
:1000C0004D4300084D4300084D4300084D430008D0
:1000D0004D4300084D4300084D430008796C00086B
:1000E000357800084D43000855550308016B00089A
:1000F000516B00088D6B00084D4300084D4300080C
:100100004D4300084D430008656900084D43000851
:100110008D6C00084D430008A96900086D6A00084D
:100120004D4300084D4300084D4300084D4300086F
:100130004D4300084D4300084D4300084D4300085F
:100140004D4300084D4300084D4300086555030822
:100150004D4300084D4300084D430008A16C0008C2
:100160004D4300084D4300084D4300084D4300082F
:100170004D4300084D4300084D4300084D4300081F
:100180004D4300084D43000880B483B000AF0346E0
:10019000FB71FB7903F00F03092B06DCFB7903F0FD
:1001A0000F03DBB23033DBB205E0FB7903F00F0362
:1001B000DBB23733DBB218460C37BD465DF8047B43
:1001C000704780B483B000AF0346FB71FB79392BD5
:1001D00003D8FB79303BDBB202E0FB79373BDBB283
:1001E00018460C37BD465DF8047B704780B483B079
:1001F00000AF78607B68072B04DC7B68DBB23233AE
:10020000DBB217E07B68212B04DC7B68DBB239337F
:10021000DBB20FE07B683B2B04DC7B68DBB23F3357
:10022000DBB207E07B6803F00103002B01D0312330
:1002300000E0302318460C37BD465DF8047B70475C
:1002400080B58CB000AF0F4B9B79002B16D10E48B8
:1002500035F0F2FF0B4B9B68184635F0B4FE0B48A7
:1002600035F0B1FE3B460021184600F031F8034658
:10027000184635F0D0FE034B01229A7100BF30378B
:10028000BD4680BDCC14002098CB0408B0CB040838
:1002900080B582B000AF786039603B68002B01D137
:1002A000074B00E0074B7A680749084845F0A6FA73
:1002B000064835F0F3FF00BF0837BD4680BD00BFDC
:1002C00018CC04082CCC04083CCC04080C1E0120DB
:1002D000F0B5AFB004AF78603960CF4B07F15C0484
:1002E0001D460FCD0FC495E80F0084E80F00CB4BDF
:1002F00007F13C041D460FCD0FC495E80F0084E8BC
:100300000F0001214FF480500FF05AFC01214FF4EF
:1003100080500FF0D5FC00214FF480500FF0D0FC3E
:10032000BF4B01229A607B68BE4A14469E4604F188
:10033000200C754626460FCE28606960AA60EB60E7
:1003400010340EF1100E6445F3D17546234607CBE9
:1003500028606960AA601B782B730023C7F8A4305B
:100360000AE0D7F8A4307A6813442A221A70D7F822
:10037000A4300133C7F8A430D7F8A4302B2BF0DD1C
:100380007B682C3300221A707B6803F108007B68BD
:1003900011337A681A32796823315F240C70097836
:1003A000117012781A701B7803703B68002B7FD095
:1003B0009D4BD86807F1080303F10C0107F108030E
:1003C00003F1100207F108030833029307F1080351
:1003D0000433019307F1080300930B46934945F05A
:1003E00033FA0023C7F8A43029E0D7F8A430002B53
:1003F00000DA0733DB109B0007F1A802134453F81F
:10040000A02CD7F8A430594203F0070301F00701EC
:1004100058BF4B42C3F107039B0022FA03F3DBB240
:1004200003F00F03D9B207F17C02D7F8A4301344CC
:100430000A461A70D7F8A4300133C7F8A430D7F8A9
:10044000A430172BD1DD1823C7F8A4302BE0D7F840
:10045000A430183B002B00DA03339B1003339B00BE
:1004600007F1A802134453F8A02CD7F8A43059423E
:1004700003F0030301F0030158BF4B42C3F1030330
:100480009B0022FA03F3DBB203F00F03D9B207F1AA
:100490007C02D7F8A43013440A461A70D7F8A43067
:1004A0000133C7F8A430D7F8A4301F2BCFDD4FE0BD
:1004B0000023C7F8A43024E0D7F8A430DA0F13449F
:1004C0005B101A465A4B13441B781A46D7F8A430CF
:1004D0000133002B03F00103B8BF5B429B0042FADB
:1004E00003F3DBB203F00F03D9B207F17C02D7F8B4
:1004F000A43013440A461A70D7F8A4300133C7F861
:10050000A430D7F8A430172BD6DD0023C7F8A430C9
:100510001AE0D7F8A430C3F11F03464A126822F448
:100520007041D7F8A420920021FA02F2D2B202F070
:100530000F02D2B207F1A8010B4403F82C2CD7F814
:10054000A4300133C7F8A430D7F8A430072BE0DD7E
:100550000023C7F8A43016E007F15C02D7F8A430F6
:1005600013441B7807F1A802134413F82C1C07F15D
:100570001C02D7F8A43013440A461A70D7F8A430E6
:100580000133C7F8A430D7F8A4301F2BE4DD0023D3
:10059000C7F8A43011E007F11C02D7F8A4301344C7
:1005A000197807F17C02D7F8A43013440A461A7070
:1005B000D7F8A4300133C7F8A430D7F8A4301F2BE4
:1005C000E9DD0023C7F8A4301DE0D7F8A4309B0074
:1005D00007F1A802134453F82C2CD7F8A4309B0041
:1005E00007F1A8010B4453F86C3C5A40D7F8A430EB
:1005F0009B0007F1A8010B4443F82C2CD7F8A4303A
:100600000133C7F8A430D7F8A430072BDDDD002371
:10061000C7F8A43027E000BFC0CC0408E0CC040831
:100620000030024064CC0408CC14002094CC0408B0
:10063000107AFF1F002004E007F17C02D7F8A430F5
:1006400013441B781846FFF79FFD0346194607F130
:100650007C02D7F8A43013440A461A70D7F8A430A5
:100660000133C7F8A430D7F8A4301F2BE4DD0023F2
:10067000C7F8A4300EE0404AD7F8A4309B0007F139
:10068000A8010B4453F82C3C1360D7F8A430013375
:10069000C7F8A430D7F8A430072BECDD0023C7F847
:1006A000A43018E0D7F8A430C3F12703324A116808
:1006B000D7F8A420920021FA02F2D2B202F00F027F
:1006C000D2B207F1A8010B4403F82C2CD7F8A430C0
:1006D0000133C7F8A430D7F8A430072BE2DD00239C
:1006E000C7F8A4301AE0D7F8A43003F12004D7F8F3
:1006F000A430203307F1A802134413F82C3C184609
:10070000FFF742FD03461A4607F1A803234403F806
:100710002C2CD7F8A4300133C7F8A430D7F8A43074
:10072000072BE0DD0023C7F8A43016E0D7F8A4209B
:100730001346DB0013441A467B689818D7F8A43098
:10074000DB0007F17C0213440822194645F0D8FB70
:10075000D7F8A4300133C7F8A430D7F8A430042B5D
:10076000E4DD00214FF480500FF06AFA7B681846F0
:10077000AC37BD46F0BD00BF0030024080B586B04A
:1007800000AFF8607A603B600B46FB72224BDB796E
:10079000002B3CD0204B5B79002B38D0FA7AFB68D9
:1007A0001E491F4845F02AF81D4835F00CFC00236F
:1007B0007B611BE07B697A6813441B781A461949F0
:1007C000174845F01BF8164835F0FDFB7B695A4287
:1007D00003F0030302F0030258BF5342032B02D17C
:1007E000202035F08FFB7B6901337B61FB7A672B1F
:1007F00001D1142200E028227B699A42DADC0A48FF
:1008000035F0E1FB386835F006FC35F0D9FD00BF66
:100810001837BD4680BD00BFCC14002000CD0408B1
:10082000181F012010CD040818CD0408B0B5C8B0B9
:1008300000AF3B1D18603B461960CD4B07F16804C3
:100840001D460FCD0FC495E8030084E80300C94B93
:1008500007F148041D460FCD0FC495E80F0084E84A
:100860000F00C54B07F128041D460FCD0FC495E8B6
:100870000F0007C4238007F10803C04A1C46154631
:100880000FCD0FC495E80F0084E80F003B1D1868DA
:1008900045F076FA03462C2B06D03B1D0021186844
:1008A000FFF7F6FC0123A3E30023C7F81C312DE07A
:1008B000D7F81C319B0007F590721344002243F8CF
:1008C000802CD7F81C319B0007F59072134453F825
:1008D000802CD7F81C319B0007F590710B4443F82E
:1008E000582CD7F81C319B0007F59072134453F82D
:1008F000582CD7F81C319B0007F590710B4443F836
:10090000302CD7F81C310133C7F81C31D7F81C3113
:10091000092BCDDD9A4BDB79002B07D0984B5B7907
:10092000002B03D03B1D186835F02AFD01214FF440
:1009300080500FF045F901214FF480500FF0C0F9BD
:1009400000214FF480500FF0BBF90023C7F8183195
:100950000023C7F81C3127E0D7F81C31591C894BFC
:1009600083FB01235A10CB17D21A1346DB00134422
:10097000CA1A002A12D0D7F81C313A1D1268134443
:10098000197807F1F002D7F8183113440A461A70A3
:10099000D7F818310133C7F8183100E000BFD7F895
:1009A0001C310133C7F81C31D7F81C312B2BD3DD98
:1009B000734BDB79002B0AD0714B5B79002B06D08F
:1009C00007F1F002704B64210020FFF7D7FE6F4B58
:1009D00001229A600023C7F81C310EE06B4AD7F859
:1009E0001C319B0007F590710B4453F8303C1360A9
:1009F000D7F81C310133C7F81C31D7F81C31072B4D
:100A0000ECDD0023C7F81C3118E0D7F81C31C3F126
:100A100027035E4A1168D7F81C21920021FA02F2DE
:100A2000D2B202F00F02D2B207F590710B4403F874
:100A3000582CD7F81C310133C7F81C31D7F81C31BA
:100A4000072BE2DD4E4BDB79002B0AD04C4B5B7958
:100A5000002B06D007F1C8024D4B6B210020FFF799
:100A60008DFE0023C7F81C311AE0D7F81C3103F1C2
:100A70002004D7F81C31203307F59072134413F883
:100A8000583C1846FFF780FB03461A4607F590735B
:100A9000234403F8582CD7F81C310133C7F81C3114
:100AA000D7F81C31072BE0DD354BDB79002B0AD062
:100AB000334B5B79002B06D007F1C802354B6B2115
:100AC0000120FFF75BFED7F8EC20D7F814319A42EB
:100AD00005D1D7F8E820D7F810319A420BD03B1D4A
:100AE00001211868FFF7D4FB00214FF480500FF06C
:100AF000A7F801237CE2224BDB79002B06D0204BA8
:100B00005B79002B02D0244835F03AFC0023C7F86B
:100B10001C3116E007F1F002D7F81C3113441B78A2
:100B20001846FFF74EFB0346194607F1F002D7F8C7
:100B30001C3113440A461A70D7F81C310133C7F828
:100B40001C31D7F81C311F2BE4DD0D4BDB79002B5A
:100B50000AD00B4B5B79002B06D007F1F0020F4B4C
:100B600064210120FFF70AFE0023C7F81C312EE0A4
:100B70008CCD0408C0CC0408A4CD0408E0CC040843
:100B8000CC140020398EE3381CCD0408003002401C
:100B900028CD040834CD04083CCD04084CCD04080D
:100BA00007F14802D7F81C3113441B7807F59072FF
:100BB000134413F8301C07F18002D7F81C3113449A
:100BC0000A461A70D7F81C310133C7F81C31D7F820
:100BD0001C311F2BE4DD0023C7F81C3111E007F1A5
:100BE0008002D7F81C311344197807F1F002D7F8C6
:100BF0001C3113440A461A70D7F81C310133C7F868
:100C00001C31D7F81C311F2BE9DDC44BDB79002BDD
:100C10000AD0C24B5B79002B06D007F1F002C04B23
:100C200064210220FFF7AAFD0023C7F81C3125E04C
:100C3000D7F81C315B0007F59072134413F8303C71
:100C40001B015AB2D7F81C315B00013307F59071D4
:100C50000B4413F8303C5BB203F00F035BB2134359
:100C60005BB2D9B207F1A002D7F81C3113440A468F
:100C70001A70D7F81C310133C7F81C31D7F81C3172
:100C80000F2BD5DDA54BDB79002B0AD0A34B5B796D
:100C9000002B06D007F1A002A24B67210020FFF72E
:100CA0006DFD0023C7F81C311BE0D7F81C319B00F9
:100CB00007F59072134453F8802C07F10803D7F816
:100CC0001C1153F821305A40D7F81C319B0007F50E
:100CD00090710B4443F8802CD7F81C310133C7F8CE
:100CE0001C31D7F81C31032BDFDD8C4BDB79002B5B
:100CF0000AD08A4B5B79002B06D007F1A0028A4B01
:100D000067210120FFF73AFD884B01229A600023FA
:100D1000C7F81C310EE0854AD7F81C319B0007F557
:100D200090710B4453F8803C1360D7F81C310133A9
:100D3000C7F81C31D7F81C31032BECDD7B4B1A684C
:100D400007F108031B695340C7F8B030734BDB79D8
:100D5000002B0AD0714B5B79002B06D007F1A00263
:100D6000734B67210220FFF709FD0023C7F81831F4
:100D700082E00023C7F81C3175E0D7F8182113462C
:100D80005B0013445B001A46D7F81C31D118D7F822
:100D900018319B0007F59072134453F8802CD7F854
:100DA0001C319B0007F59070034453F8B83CB2FB2C
:100DB000F3F003FB00F3D31ADAB207F590730B4498
:100DC00003F8582CD7F818319B0007F5907213449C
:100DD00053F8802CD7F81C319B0007F590710B4419
:100DE00053F8B83CB2FBF3F2D7F818319B0007F583
:100DF00090710B4443F8802C484BDB79002B14D0C6
:100E0000464B5B79002B10D0D7F8182113465B00B6
:100E100013445B0003F10A02D7F81C31D01807F124
:100E2000C802444B6B21FFF7A9FC3C4BDB79002B3C
:100E300014D03A4B5B79002B10D0D7F81821134609
:100E40005B0013445B0003F10A02D7F81C31D01891
:100E500007F1A002374B6721FFF790FCD7F81C3150
:100E60000133C7F81C31D7F81C31052B85DDD7F8C5
:100E700018310133C7F81831D7F81831042B7FF730
:100E800078AF0023C7F81C310BE0D7F81C313A4685
:100E9000126813442A221A70D7F81C310133C7F89C
:100EA0001C31D7F81C311F2BEFDD3B461B6820336C
:100EB00000221A703B461B6803F10F023B461B6879
:100EC00010335F2119701B7813700023C7F81C3191
:100ED0001BE007F12802D7F81C3113441B7807F5F3
:100EE0009072134413F8583C1846FFF77FF90346F5
:100EF000194607F18002D7F81C3113440A461A70CC
:100F0000D7F81C310133C7F81C31D7F81C311D2B21
:100F1000DFDD0023C7F81C3120E000BFCC14002027
:100F200054CD04085CCD040870CD040800300240A4
:100F300074CD04087CCD040807F18002D7F81C3179
:100F40001344197807F1C802D7F81C3113440A4634
:100F50001A70D7F81C310133C7F81C31D7F81C318F
:100F60001D2BE9DD254BDB79002B0AD0234B5B7968
:100F7000002B06D007F1C802214B6B210320FFF79D
:100F8000FDFB0023C7F81C3119E0D7F81C211346DC
:100F90001B0113441A463B461B689818D7F81C21BE
:100FA00013461B019B1A07F1C80213440F2219466E
:100FB00044F0A6FFD7F81C310133C7F81C31D7F82D
:100FC0001C31012BE1DD00214FF480500EF038FE82
:100FD0000A4BDB79002B07D0084B5B79002B03D041
:100FE0003B46186835F0CCF9044B0022DA71002337
:100FF000184607F59077BD46B0BD00BFCC14002061
:1010000080CD0408B0B5D0B004AF07F14803642226
:101010000021184644F0A4FB714BBB6440F213431B
:10102000A7F84C306F4B3B6541F20703A7F85430EB
:101030006D4BBB656D4BFB6540F21343A7F8603009
:10104000684B7B6641F20703A7F86830664BFB6686
:10105000674B3B6740F21343A7F87430614BBB67A3
:1010600041F20703A7F87C305F4BC7F88030614B33
:10107000C7F8843040F21343A7F88830594BC7F8BB
:101080008C3041F20703A7F89030574BC7F89430E3
:10109000594B1B68C3F30B03C7F82431564B1B682D
:1010A0001B0C9BB2C7F8203107F10803534A1268A2
:1010B000114619800233120C1A700023C7F82C3124
:1010C0002BE0D7F82C214E4B13441B781A463B4695
:1010D0004C49184644F092FB3A4607F10803114682
:1010E000184644F0DFFBD7F82C31032B03D0D7F898
:1010F0002C31072B0CD107F10803184644F040FEB1
:1011000003461A4607F1080313443F4A1068186063
:10111000D7F82C310133C7F82C31D7F82C310B2BF1
:10112000CFDD07F1E40007F108030093D7F8203181
:10113000D7F82421354944F061FB0123C7F8283151
:101140000023C7F82C3138E007F14801D7F82C21EB
:1011500013469B0013449B000B44C7F81C31D7F87F
:101160001C319B881C46D7F81C319B891D46D7F83B
:101170001C311B68D7F81C219268D7F81C1109692B
:1011800007F1AC000291019200932B4622462049C0
:1011900044F034FB07F1AC0207F1E40311461846B2
:1011A00044F022FCC7F82801D7F82831002B09D0D9
:1011B000D7F82C310133C7F82C31D7F82C31042B58
:1011C000C2DD00E000BFD7F82831002B0CBF01239F
:1011D0000023DBB2184607F59877BD46B0BD00BFC7
:1011E000003A001D32385115373634360047003288
:1011F0000054002400410035002004E0C4CD040860
:10120000107AFF1F10CD0408C8CD0408CCCD040807
:10121000E8CD040880B584B000AF0346B9607A60B9
:10122000FB73FB7B002B03D00D4B00229A710FE068
:1012300010210B4844F088F9FFF7E4FE03461A46F4
:10124000074B5A71064ABB689360054A7B68D360B6
:10125000034B0022DA7100BF1037BD4680BD00BFCE
:10126000CC14002080B582B000AF0346FB710F4B59
:101270005B79002B01D0002314E00C4B1B79002B71
:101280000AD00A4B1B68094A1279114601228A408A
:10129000934201D1012305E0FB79002B01D0FEF739
:1012A000CFFF002318460837BD4680BDCC14002070
:1012B00080B400AF054B00221A71044B00221A6063
:1012C00000BFBD465DF8047B704700BFCC14002012
:1012D00080B58CB000AF114B03F5A64354331A7898
:1012E00042F001021A703B4600211846FEF7F0FF5B
:1012F00003461A460A490B4844F080FA094834F07C
:101300008AFE064B03F5A64354331A786FF30002A6
:101310001A7000BF3037BD4680BD00BFE0C200205C
:1013200018CE0408181F012090B597B000AF344BB9
:1013300003F5A64354331A7842F001021A70314B78
:1013400000229A7107F1280300211846FEF7C0FF1A
:101350002C4B98682B4BDB682022194644F0D0FDBB
:10136000284B9B68203300221A703A1D07F128038E
:1013700011461846FFF75AFA0446224BDA683B1D1D
:101380001146184644F030FB03469C4221D10CF034
:1013900083F802461C4B83FB021313441911D31725
:1013A000C91A0B465B015B1AD11ACBB20133DAB210
:1013B000144B1A71134B1B791A46012393401A469A
:1013C000104B1A60114834F0BBFF0E4B00229A718B
:1013D00007E00C4B00221A710A4B00221A60FEF73C
:1013E0002FFF0DF0C9FF064B03F5A64354331A78BF
:1013F0006FF300021A7000BF5C37BD4690BD00BF9E
:10140000E0C20020CC1400204308218424CE04082C
:1014100080B596B000AF544B5B79002B00F08A800A
:10142000524B1B68D3ED107A9FED517AF4EE477A58
:10143000F1EE10FA10D04D4B1B68D3ED107AB7EED9
:10144000007AF4EE477AF1EE10FA0CBF0123002384
:10145000DBB21A46444BDA71444B1B68D3ED0F7A6A
:101460009FED437AF4EE477AF1EE10FA02D127F0BD
:10147000DDFC76E03D4B1B68D3ED0F7AFDEEE77A9D
:1014800017EE902A3B4B9A4202D027F01FFD68E0EE
:10149000394B03F5A64354331A7842F001021A700F
:1014A000324B1B68D3ED027AB7EE007AF4EE477A3E
:1014B000F1EE10FA06D107F1240300211846FEF7D9
:1014C00007FF19E0294B1B68D3ED127AB7EE007ABB
:1014D000F4EE477AF1EE10FA06D107F12403012168
:1014E0001846FEF7F5FE07E01F4BDA6807F1240304
:1014F0001146184644F0E2FB3A4607F12403114630
:101500001846FFF793F978657B6D002B09D107F139
:1015100024033A4619491A4844F070F9184834F03F
:101520000FFF154B03F5A64354331A786FF30002EF
:101530001A7016E00D4B1B68D3ED0C7ABDEEE77AFE
:101540000A4B1B68D3ED0D7AFDEEE77A17EE903A61
:1015500017EE102A0B490C4844F050F90A4834F0B1
:101560009DFE5837BD4680BDCC140020444F00205E
:10157000F02374C9AD060100E0C2002040CE04088B
:10158000181F012050CE04080C1E012090B484B016
:1015900000AF03460A46FB711346BB710023FB6094
:1015A000BB7903F003039B000F2202FA03F3FB60F5
:1015B0001649BB799B08DBB21846144ABB799B08D5
:1015C000DBB2023352F82320FB68DB431A40831C52
:1015D00041F823200D48BB799B08DBB21C460B4A1F
:1015E000BB799B08DBB2023352F82320F979BB792F
:1015F00003F003039B0001FA03F31A43A31C40F812
:10160000232000BF1037BD4690BC70470038014012
:1016100080B485B000AF78600023FB607B68DB6836
:101620004FF0FF325A607B68DB686FF080425A618E
:10163000FB7B43F08003FB737B7B43F008037B73EE
:101640007B68DB68FA689A6100BF1437BD465DF8B5
:10165000047B704780B586B000AF78600023FB74D0
:1016600000237B610023FB60032033F03FFF7B6896
:10167000DB681B69FB607B6901337B617B69184A0E
:10168000934201D9002326E0FB68C3F3C073DBB2A9
:10169000002BE9D000237B61FB6843F00103FB6072
:1016A0007B68DB68FA681A617B68DB681B69FB6032
:1016B0007B6901337B617B69094A934206D8FB68E9
:1016C000C3F30003DBB2012BEED000E000BF032028
:1016D00033F00CFFFB7C18461837BD4680BD00BFB9
:1016E000400D030080B489B000AFF860B9601146C6
:1016F0001A460B46FB711346BB800023FB76FB6842
:10170000DB78002B22D100237B610023FB61BB88A7
:101710000333002B00DA03339B107B61FB79FA68FB
:1017200032339B0013449B683B610023FB6109E05B
:10173000BB681A683B691A60FB690133FB61BB68CF
:101740000433BB60FA697B699A42F1D3FB7E184689
:101750002437BD465DF8047B704780B489B000AF84
:10176000F860B9601346FB800023FB61FB880333FC
:10177000002B00DA03339B10BB61FB68D3F8D03039
:101780007B610023FB6109E07B691A68BB681A6012
:10179000FB690133FB61BB680433BB60FA69BB6959
:1017A0009A42F1D3BB6818462437BD465DF8047BE6
:1017B0007047000080B487B000AF78600B46FB70C4
:1017C00000233B610023FB737B680022DA707B6897
:1017D00001229A707B6840229A80FB78012B13D1FA
:1017E0004FF0A0433B617B680122DA727B680822DC
:1017F0001A707B6804225A707B684FF4A072DA80FA
:101800007B6802221A7211E0FB78002B0ED1454B47
:101810003B617B680022DA727B680C221A707B685D
:1018200006225A707B684FF4A062DA803A697B68BE
:10183000DA603B6903F500631A467B681A6100238E
:101840007B611CE07B695A013B69134403F510631B
:1018500019467A687B6904339B00134499607B695D
:101860005A013B69134403F5306319467A687B6972
:1018700014339B00134459607B6901337B617B689F
:101880005B781A467B699A42DCD83B6903F5806332
:101890001A467B685A613B6903F588631A467B6880
:1018A000C3F8CC2000237B610FE07B695A013B69C0
:1018B000134403F5A06319467A687B6922339B00C1
:1018C000134499607B6901337B617B681B781A46FE
:1018D0007B699A42E9D800237B610FE07B691A0398
:1018E0003B69134403F5805319467A687B693233A8
:1018F0009B00134499607B6901337B617B681B7893
:101900001A467B699A42E9D83B6903F560631A4637
:101910007B68C3F80C21FB7B18461C37BD465DF87D
:10192000047B70470000044080B586B000AF78604B
:101930000023FB7500233B610023FB600023BB6099
:101940007B681B7A012B42D17B68DB689B6BFB6059
:10195000BB7B6FF30003BB737B685B7A002B03D008
:10196000BB7B43F01003BB737B68DB68FA689A6348
:1019700000233B617B68DB68DB683B613B7C6FF38A
:1019800086133B74BB7C6FF38613BB74BB7C6FF315
:101990004103BB74BB7C6FF3C303BB747B68DB6820
:1019A0003A69DA607868FFF755FE7B68DB78012BCF
:1019B0003DD13B7A052262F344033B723B7A43F00C
:1019C00020033B727B68DB68BA689A602FE07B6813
:1019D000DB68DB683B613B7C43F040033B747B6826
:1019E000DB683A69DA607868FFF734FE0023FB6051
:1019F000BB7B43F00103BB73BB7B43F00403BB73AE
:101A0000BB7B43F00803BB73BB7B43F02003BB737A
:101A10007B685B7A002B03D0BB7B43F01003BB7366
:101A20007B68DB68FA689A63142033F083FD7B6877
:101A3000DB78012B10D17B68DB689B68BB603B7A4D
:101A4000052262F344033B723B7A43F020033B726E
:101A50007B68DB68BA689A60FB7D18461837BD461C
:101A600080BD80B485B000AF78600023FB73002395
:101A7000BB603B7A43F001033B727B68DB687A68AA
:101A8000D2689168BA680A439A60FB7B184614379B
:101A9000BD465DF8047B704780B485B000AF7860C8
:101AA0000023FB730023BB603B7A43F001033B72CE
:101AB0007B68DB687A68D2689168BA68D2430A406A
:101AC0009A60FB7B18461437BD465DF8047B70476F
:101AD00080B586B000AF786039600023FB740023C6
:101AE0007B610023FB60FB6843F02003FB603B68E5
:101AF000DBB203F01F03DAB2FB6862F38A13FB6008
:101B00007B68DB68FA681A617B68DB681B69FB60CD
:101B10007B6901337B617B69094A934206D8FB6884
:101B2000C3F34013DBB2012BEED000E000BF032073
:101B300033F0DCFCFB7C18461837BD4680BD00BF87
:101B4000400D030080B586B000AF78600023FB74C1
:101B500000237B610023FB60FB6843F01003FB6004
:101B60007B68DB68FA681A617B68DB681B69FB606D
:101B70007B6901337B617B69094A934206D8FB6824
:101B8000C3F30013DBB2012BEED000E000BF032053
:101B900033F0ACFCFB7C18461837BD4680BD00BF57
:101BA000400D030080B584B000AF78600B46FB7039
:101BB0000023FB737B68DB68DB68BB60FB7A6FF339
:101BC0004513FB72FB7A6FF38613FB72FB78012BD4
:101BD00004D1FB7A43F02003FB7206E0FB78002B74
:101BE00003D1FB7A43F04003FB727B68DB68BA6881
:101BF000DA60322033F09EFCFB7B18461037BD467E
:101C000080BD80B483B000AF78607B68DB685B69BF
:101C100003F0010318460C37BD465DF8047B70479E
:101C200080B582B000AF78607868FFF7EAFF0346BE
:101C3000012B14BF01230023DBB218460837BD4631
:101C400080BD80B485B000AF78600023FB607B6806
:101C5000DB685B69FB607B68DB689B69FA68134043
:101C6000FB60FB6818461437BD465DF8047B70477F
:101C700080B485B000AF78600B46FB707B681B6951
:101C80001B68FB60FB7803F00303DAB23B7B62F373
:101C900001033B737B681B69FA681A6000BF143745
:101CA000BD465DF8047B704780B58CB000AF7860AE
:101CB000002387F82B3000237B6200233B62002344
:101CC000FB610023BB6100237B617B68D3F80C318F
:101CD00000221A607B681B691B683B6297F8213001
:101CE0006FF3C40387F821307B681B693A6A1A6076
:101CF0007B68DB7A012B33D103217868FFF7B8FFCB
:101D00007B68DB6880225A622023FB838023BB83AD
:101D10007B68DB68FA699A62BA8BFB8B13449BB2CF
:101D20003B8380237B837B68DB68BA69C3F804212B
:101D30003A8B7B8B13449BB23B8320237B837B6852
:101D4000DB68BA69C3F808213A8B7B8B13449BB2DA
:101D50003B8300237B837B68DB68BA69C3F80C2173
:101D600010217868FFF7B4FE7868FFF7EBFE7B6818
:101D70001B6900221A617B681B6900225A617B681B
:101D80001B694FF0FF329A617B681B690022DA61A0
:101D90000023FB623AE07A68FB6A04339B00134439
:101DA0009B681B687B6297F8273023F07F03DBB2C8
:101DB000002B0ED000237B6297F8273043F04003BE
:101DC00087F8273097F8273043F0080387F8273043
:101DD00001E000237B627A68FB6A04339B001344B2
:101DE0009B687A6A1A607A68FB6A04339B00134422
:101DF0009B6800221A617A68FB6A04339B001344D3
:101E00009B68FF229A60FB6A0133FB627B685B7808
:101E10001A46FB6A9A42BED80023FB6235E07A6814
:101E2000FB6A14339B0013445B681B68FB60FB7BFD
:101E300023F07F03DBB2002B0AD00023FB60FB7B87
:101E400043F04003FB73FB7B43F00803FB7301E0AB
:101E50000023FB607A68FB6A14339B0013445B68C1
:101E6000FA681A607A68FB6A14339B0013445B6853
:101E700000221A617A68FB6A14339B0013445B6882
:101E8000FF229A60FB6A0133FB627B685B781A462B
:101E9000FB6A9A42C3D800237B617B7D43F0010338
:101EA0007B757B681B697A68126911697A69D2430C
:101EB00011407A690A431A617B68DB78012B1BD1D8
:101EC00000233B613B7C43F001033B743B7C43F0CC
:101ED00002033B743B8A402262F38A033B82BB7C51
:101EE00043F00103BB747B8A402262F349037B8287
:101EF0007B681B693A691A63786800F006F897F8FE
:101F00002B3018463037BD4680BD80B584B000AF59
:101F100078600023FB730023BB607B68DB680022D2
:101F20009A617B68DB686FF080425A617868FFF7DE
:101F30006FFB7B68DB78002B03D13B7A43F0100307
:101F40003B727B7A43F008037B727B7A43F0100389
:101F50007B727B7A43F020037B72BB7A43F00403ED
:101F6000BB72BB7A43F00803BB723B7A43F00803B1
:101F70003B72BB7A43F01003BB72BB7A43F0200381
:101F8000BB727B68DB687A68D2689169BA68D243B1
:101F90001140BA680A439A61FB7B18461037BD4668
:101FA00080BD80B485B000AF78600023FB737B6890
:101FB0001B699B68BB603B7AC3F34103DBB2022B16
:101FC00009D0032B04D0012B02D00323FB7305E0BF
:101FD0000223FB7302E00123FB7300BFFB7B184667
:101FE0001437BD465DF8047B704780B487B000AFFE
:101FF00078600023FB750023BB607B681B699B68CE
:102000003B617B689B691B68FB603B7CC3F34103BE
:10201000DBB2022B04D0BB896FF30A03BB8105E05E
:10202000BB89032262F30A03BB8100BF7B689B6903
:10203000FA681A607B7A43F001037B727B681B6944
:102040007A6812695168BA68D2431140BA680A4383
:102050005A60FB7D18461C37BD465DF8047B70470F
:1020600080B487B000AF786039600023FB74002330
:10207000FB600023BB603B685B78012B0FD13B68A2
:102080001B787A6804339B0013449B687B613B6830
:102090001B781A46012393409BB23B810EE03B68BC
:1020A0001B787A6814339B0013445B687B613B6840
:1020B0001B781A46012393409BB27B817B691B6886
:1020C000FB607B7B23F07F03DBB2002B27D13B68D7
:1020D0009B689BB2C3F30A039AB2BB8962F30A03FB
:1020E000BB813B68DB7803F00303DAB2BB7B62F3AE
:1020F0008303BB733B68DB88DBB203F00F03DAB208
:10210000FB8962F38913FB81FB7B43F01003FB73B4
:102110007B7B43F080037B73FA687B691A607B6882
:102120001B697A681269D169BA680A43DA61FB7C73
:1021300018461C37BD465DF8047B704780B487B0F5
:1021400000AF786039600023FB740023FB6000233C
:10215000BB603B685B78012B0FD13B681B787A68CA
:1021600004339B0013449B687B613B681B781A46D1
:10217000012393409BB23B810EE03B681B787A6859
:1021800014339B0013445B687B613B681B781A46E1
:10219000012393409BB27B817B7B6FF3C7137B73DF
:1021A000FA687B691A607B681B697A681269D16971
:1021B000BA68D2430A40DA61FB7C18461C37BD4638
:1021C0005DF8047B704780B588B000AF78603960F7
:1021D0000023FB770023BB6100237B6100233B616D
:1021E0003B685B78012B40F0AB803B681B787A68DA
:1021F00004339B0013449B681B687B613B681B781E
:102200007A6804339B0013449B681B693B613B68FD
:102210005B69002B09D13B696FF312033B617B8A39
:10222000012262F3CC037B8222E03B685B69C3F34B
:1022300012023B6962F312033B613B685A693B68D7
:102240009B6813445A1E3B689B68B2FBF3F39BB236
:10225000C3F309039AB27B8A62F3CC037B823B68A7
:10226000DB78012B04D1FB7C012262F34613FB7463
:102270003B681B787A6804339B0013449B683A6977
:102280001A617B68DB78012B0AD13B681B787A687E
:1022900004339B0013449B683A6812695A6115E045
:1022A0003B68DB78012B11D03B685B69002B0DD0BC
:1022B0003B681B781A4601239340BB617B681B690E
:1022C0007A681269516BBA690A435A633B68DB78D2
:1022D000012B14D17B681B699B68FB60FB68C3F30F
:1022E0000D239BB203F00103002B04D1FB7D43F0CF
:1022F0002003FB7503E0FB7D43F01003FB75FB7DC2
:1023000043F00403FB75FB7D43F08003FB753B68E2
:102310001B787A6804339B0013449B687A691A60BF
:102320003B68DB78012B40F089803B68D9683B68CB
:102330001A783B685B699BB27868FFF7D3F97DE058
:102340003B681B787A6814339B0013445B681B68F6
:102350007B613B681B787A6814339B0013445B688D
:102360001B693B613B685B69002B0DD13B689B6837
:10237000C3F312023B6962F312033B617B8A0122C1
:1023800062F3CC037B8220E03B685A693B689B6820
:1023900013445A1E3B689B68B2FBF3F39BB2C3F332
:1023A00009039AB27B8A62F3CC037B827B8AC3F3F4
:1023B000C9039BB21A463B689B6803FB02F3C3F355
:1023C00012023B6962F312033B613B681B787A6837
:1023D00014339B0013445B683A691A617B68DB78AD
:1023E000012B09D13B681B787A6814339B00134496
:1023F0005B683A6812695A613B68DB78012B0CD143
:102400003B685B79002B04D0FB7D43F02003FB7518
:1024100003E0FB7D43F01003FB75FB7D43F00403F9
:10242000FB75FB7D43F08003FB753B681B787A6886
:1024300014339B0013445B687A691A60FB7F18466B
:102440002037BD4680BD80B489B000AF7860396068
:102450000023FB770023BB6100233B610023BB60AB
:102460003B685B78012B70D17B689B697B617B69E2
:102470001B683B617B691B69BB603B685B69002B28
:1024800009D13B7A6FF306033B72BB7A012262F3F8
:10249000C403BB7223E03B685A693B689B689A425D
:1024A0000ED93B689A683B685A613B689B68DBB20F
:1024B00003F07F03DAB23B7A62F306033B7209E072
:1024C0003B685B69DBB203F07F03DAB23B7A62F30D
:1024D00006033B72BB7A012262F3C403BB72BA6883
:1024E0007B691A617B68DB78012B09D13B681B781B
:1024F0007A6804339B0013449B683A6812695A61F6
:10250000FB7C43F00403FB74FB7C43F08003FB740F
:102510003A697B691A607B68DB78002B76D13B686F
:102520005B69002B72D03B681B781A4601239340ED
:102530001A46BB691343BB617B681B697A681269E1
:10254000516BBA690A435A6360E03B681B787A684A
:1025500014339B0013445B681B683B613B681B782A
:102560007A6814339B0013445B681B69BB603B684B
:102570005B69002B0FD13B689B68DBB203F07F03E4
:10258000DAB23B7A62F306033B72BB7A012262F352
:10259000C403BB7212E03B689A683B685A613B68AF
:1025A0009B68DBB203F07F03DAB23B7A62F3060387
:1025B0003B72BB7A012262F3C403BB723B681B7897
:1025C0007A6814339B0013445B68BA681A617B68AD
:1025D000DB78012B09D13B681B787A6814339B00A8
:1025E00013445B683A6812695A61FB7C43F0040348
:1025F000FB74FB7C43F08003FB743B681B787A68B8
:1026000014339B0013445B683A691A60FB7F1846D9
:102610002437BD465DF8047B704780B487B000AFB7
:10262000786039600023FB750023FB603B685B78B2
:10263000012B1CD13B681B787A6804339B00134440
:102640009B683B613B691B68FB60FB7B23F07F035E
:10265000DBB2002B03D0FB7B43F04003FB73BB7B5F
:1026600043F02003BB73FA683B691A6011E03B68D2
:102670001B787A6814339B0013445B683B613B69A9
:102680001B68FB60BB7B43F02003BB73FA683B69AC
:102690001A60FB7D18461C37BD465DF8047B704709
:1026A00080B487B000AF786039600023FB740023EA
:1026B000FB603B685B78012B08D13B681B787A682C
:1026C00004339B0013449B687B6107E03B681B78E5
:1026D0007A6814339B0013445B687B617B691B68D9
:1026E000FB60BB7B6FF34513BB733B68DB78032B4D
:1026F00003D03B68DB78022B03D1FB7B43F0100354
:10270000FB73FA687B691A60FB7C18461C37BD4670
:102710005DF8047B704780B485B000AF78607B685B
:102720001B699B69FB607B681B69DB69FA68134066
:10273000FB60FB681B0C18461437BD465DF8047B34
:10274000704780B485B000AF78600B46FB70FB78B3
:102750007A6814339B0013445B689B68FB607B685A
:102760001B695B69FA681340FB60FB681846143705
:10277000BD465DF8047B704780B485B000AF7860DB
:102780007B681B699B69FB607B681B69DB69FA6876
:102790001340FB60FB689BB218461437BD465DF8DA
:1027A000047B704780B487B000AF786000233B6142
:1027B000FB7C43F0C003FB74BB7C012262F3C403C7
:1027C000BB743B7C182262F306033B747B685B6D31
:1027D0003A691A617B68DB78012B16D10023FB6014
:1027E0007B685B6D7A6802F2CC525A617B685B6DE4
:1027F0001B68FB60FB7B43F08003FB734FF080237F
:10280000FB607B685B6DFA681A6000BF1C37BD46D1
:102810005DF8047B7047000080B400AF034B0022DA
:102820001A7000BFBD465DF8047B70476812002037
:1028300080B483B000AF0346FB71044B00221A70D2
:1028400000BF0C37BD465DF8047B7047681200205E
:1028500080B400AF034B01221A7000BFBD465DF883
:10286000047B70476812002080B400AF034B002245
:102870001A7000BFBD465DF8047B704768120020E7
:1028800080B400AF034B00221A7000BFBD465DF854
:10289000047B70476812002080B400AF034B002215
:1028A0001A7000BFBD465DF8047B704768120020B7
:1028B00080B400AF034B00221A7000BFBD465DF824
:1028C000047B70476812002080B400AF034B1B7874
:1028D0001846BD465DF8047B704700BF68120020B3
:1028E00080B483B000AF0346FB71094997F9073004
:1028F0005B09FA7902F01F02012000FA02F241F8A6
:10290000232000BF0C37BD465DF8047B704700BF35
:1029100000E100E080B584B004AF012140F2FF1077
:102920000DF04EF9002140F2FF100DF0E9F901F031
:1029300047FF0323029344F2100301930023009303
:102940000123114A042111480BF08FFD0323029348
:1029500044F2420301930023009300230C4A052113
:102960000C480BF082FD0323029344F2040301930D
:10297000002300930123084A072108480BF075FD46
:1029800000BFBD4680BD00BFF4D20408F44B002058
:10299000FCD204085C29002000D30408304D00203C
:1029A00080B586B000AF7860202001F03DF97B68EB
:1029B000BB600023BB810023FB8100233B820023FB
:1029C000BB820C237B8207F1080319460A4800F0FA
:1029D000BBFF0121084801F071F80121472001F0F7
:1029E00062F9012240F22551034801F087F800BF47
:1029F0001837BD4680BD00BF0014014080B582B0CD
:102A000000AF78607868FFF7CBFF00BF0837BD469E
:102A100080BD000080B58EB000AF78607B683B4A17
:102A2000934202D14FF0007301E04FF080631846EB
:102A300001F0D4F807F12C03184601F05BFC0023E9
:102A400087F83230012387F83330002387F8343099
:102A5000002387F83530002387F83630012387F8C4
:102A60003730002387F82E30002387F82F300223D9
:102A700087F83030012387F831303823BB850E23A7
:102A8000BB8507F12C031946786801F0A5FA7B682D
:102A90001E4A93421BD1002387F82730012387F871
:102AA00028300023BB830423FB8300233B840423BF
:102AB0007B840023BB84012387F82930002387F817
:102AC000263007F11C03184601F058FB1AE07B681A
:102AD0000F4A934216D10023FB7501233B76002356
:102AE000BB810423FB8100233B8204237B820023E0
:102AF000BB8201237B760E23BB7507F10C031846BE
:102B000001F03CFB00BF3837BD4680BD006400408B
:102B10000068004080B586B000AF78600B46FB705F
:102B20007B68D3F85033BB60BB68744A934206D1CC
:102B300002237B6101233B611923FB6091E0BB68A9
:102B4000B3F1804F06D101237B6101233B611C233C
:102B5000FB6086E0BB686A4A934206D101237B6131
:102B600002233B611D23FB607BE0BB68654A934207
:102B700006D101237B6104233B611E23FB6070E0CF
:102B8000BB68614A934206D101237B6108233B6104
:102B90003223FB6065E0BB685C4A934206D10123A7
:102BA0007B6110233B613623FB605AE0BB68584AC7
:102BB000934206D101237B6120233B613723FB60D5
:102BC0004FE0BB68534A934206D102237B61022344
:102BD0003B612C23FB6044E0BB684F4A934207D122
:102BE00002237B614FF480333B611823FB6038E0A4
:102BF000BB684A4A934207D102237B614FF40033FA
:102C00003B611923FB602CE0BB68454A934207D126
:102C100002237B614FF480233B611A23FB6020E099
:102C2000BB68404A934206D101237B6140233B614C
:102C30002B23FB6015E0BB683B4A934206D101237E
:102C40007B6180233B612C23FB600AE0BB68374A31
:102C500093424ED101237B614FF480733B612D235E
:102C6000FB60FB68DBB20821184601F003F8002284
:102C70000121B8683DF0C7FA7B69012B07D138699B
:102C800000F0ACFF7B682A4AC3F8542306E0386999
:102C900000F0CAFF7B68274AC3F85423264B4FF63F
:102CA000FF721A80244B00225A80234B4FF6FF728A
:102CB0005A60214B00221A811F4B00229A721E4932
:102CC000B8683CF059FF0121B8683CF0DBFFFB78A5
:102CD000002B0FD0FB685BB21846FFF701FE012105
:102CE000B8683DF0DEFA01220121B8683DF08BFAA8
:102CF00000E000BF1837BD4680BD00BF00000140A6
:102D00000004004000080040000C0040001000409B
:102D10000014004000040140004001400044014014
:102D20000048014000180040001C00400020004006
:102D3000A037A04CA037204DD41A002080B500AF9A
:102D4000012000F071FF0721192000F093FF0022FD
:102D5000012115483DF057FA144B4FF6FF721A80C7
:102D6000124B00225A80114B4FF6FF725A600F4BE4
:102D700000221A810D4B00229A720C490A483CF03D
:102D8000FBFE012108483CF07DFF012106483DF093
:102D900088FA0122012104483DF035FA1920FFF795
:102DA0009FFD00BF80BD00BF00000140D41A00207D
:102DB00080B500AF022000F011FF0D4B53221A80A6
:102DC0000B4B00225A800A4B4FF6FF725A60084B99
:102DD00000221A81064B00229A72054905483CF0F0
:102DE000CBFE012103483CF08DFF00BF80BD00BF3A
:102DF000D41A00200004004080B588B000AF3E4BDC
:102E000003F5884368331B78002B03D1012000F0C1
:102E1000CBFE6CE0012000F0E1FE002201214FF02A
:102E200080403DF0F0F9344B03F5884378331B685C
:102E300007EE903AB8EEE77ADFED306AC6EE877AB1
:102E4000B7EE007A77EE877AFCEEE77A17EE903AE3
:102E5000FB61FB691B0CBB61BB690133FA69B2FB07
:102E6000F3F3013B7B61264B00225A80BB699AB287
:102E7000234B1A80224A7B695360214B00221A811E
:102E80001F4B00229A721E494FF080403CF074FEA6
:102E90003B4618463DF046F860233B8001237B808B
:102EA0000023BB60144B03F5884369331B78002B68
:102EB00001D1022300E00023BB813B4619464FF0BD
:102EC00080403CF0C7FF08214FF080403DF06AF899
:102ED00001214FF080403CF0F5FE01214FF0804091
:102EE0003DF06BF901214FF080403CF00BFF00BF3B
:102EF0002037BD4680BD00BFC0650020A037A04C74
:102F0000D41A002080B586B000AF2C4B03F58D435A
:102F100004331B68002B4DD029483DF09BFB274B09
:102F200003F58D4304331B687B6100217869FFF74B
:102F3000F1FD244B00225A80224B4FF6FF721A807B
:102F4000204B4FF6FF725A601E4B00221A811D4B18
:102F500000229A727B69D3F850331A4918463CF024
:102F60000BFE3B4618463CF0DDFF60233B8001230F
:102F70007B800023BB600023BB817B69D3F8503387
:102F80003A46114618463CF0DDFE7B69D3F85033D3
:102F9000082118463CF0E8FF7B69D3F85033012143
:102FA00018463CF08FFE7B69D3F850330121184658
:102FB0003DF003F900BF1837BD4680BDC065002055
:102FC000463E0300D41A002080B582B000AF0F4BFC
:102FD00003F58D4304331B68002B13D00B4B03F513
:102FE0008D4304331B687B6001217868FFF792FDF5
:102FF0007B68D3F8303318463DF02CFB7B68002209
:1030000083F8512200BF0837BD4680BDC06500204F
:1030100080B500AF102000F0E1FD0A21362000F05D
:1030200029FE0022012115483DF0EDF8144B4FF622
:10303000FF721A80124B00225A80114B4FF6FF721A
:103040005A600F4B00221A810D4B00229A720C49D4
:103050000A483CF091FD3620FFF742FC0121074869
:103060003CF010FE012105483DF01BF90122012131
:1030700002483DF0C8F800BF80BD00BF001000400E
:10308000D41A002080B500AF202000F0A7FD092150
:10309000372000F0EFFD0022012116483DF0B3F883
:1030A000154B42F2CF021A80134B00225A80124B6A
:1030B00063225A60104B00221A810F4B00229A7231
:1030C0000D490C483CF058FD3720FFF709FC012161
:1030D00008483CF0D7FD012106483DF0E2F8012206
:1030E000012104483DF08FF8012102483CF00AFE1E
:1030F00000BF80BD00140040D41A002080B500AF8E
:10310000124B03F5884364331B68002B19D0002051
:103110009FED0F0A39F0AEFD0C4B03F58843643385
:103120001B68012118463AF005FB084B03F588435C
:1031300074331B78002B01D0FFF75EFE054B642231
:103140001A6000F0CBF800BF80BD00BFC065002052
:10315000000000001813002090B583B000AF474B6B
:1031600003F58C4304334FF07E521A6000237B60DA
:103170000CE07B68D9B2414A7B68134403F58A436B
:1031800004330A461A707B6801337B607B68FF2B2F
:10319000EFDD3A4B03F5884368331B78002B66D08C
:1031A000364B03F5884364331B68002B5FD0334BE9
:1031B00003F5884364331B681B78184639F0E3FA3B
:1031C00000233B6026E02D4B03F5884364331B68E6
:1031D0001B78184618F00EFC03461A46012393404C
:1031E000DB4327493A6802F69222D2000A44D2E928
:1031F00000124FEAE37403EA010304EA02042049DF
:103200003A6802F69222D2000A44C2E900343B68CE
:1032100001333B603B683F2BD5DD184B03F58843FA
:1032200064331868154B03F5884370331B689BB2F1
:10323000032200213AF050FC104B03F5884364331D
:103240001B68012118463AF0A0FA0C4B03F588439D
:1032500074331B78002B04D0FFF7CEFD09483DF0F6
:10326000F9F900209FED080A39F004FD01E0FFF7AD
:1032700045FF00BF0C37BD4690BD00BFC0650020B4
:10328000E0C20020033E01000000000080B400AF57
:10329000094B03F58C4320334FF000021A60064BB4
:1032A00003F58C4324334FF4FA621A6000BFBD4625
:1032B0005DF8047B704700BFC065002080B400AF9C
:1032C000054B03F58C431C334FF082421A6000BF5C
:1032D000BD465DF8047B7047C065002080B400AF38
:1032E0004E4B03F588436033FE221A704B4B03F5B7
:1032F0008843643300221A60484B03F588436833DF
:1033000000221A70454B03F58843693301221A7075
:10331000424B03F588436C3300221A603F4B03F5A0
:103320008843703300221A603C4B03F588437433A2
:1033300000221A70394B03F5884378334FF4FA6250
:103340001A60364B03F588437C334FF000021A6055
:10335000324B03F589434FF000021A602F4B03F5FF
:103360008C4318334FF080421A602C4B03F589438D
:103370000C3301221A60294B03F5894314330022D0
:103380001A60264B03F58943183300221A60234B39
:1033900003F589431C3300221A60204B03F589434F
:1033A000203300221A601D4B03F5894348334FF048
:1033B00000021A60194B03F589434C334FF00002A9
:1033C0001A60164B03F5894350334FF000021A6020
:1033D000124B03F5894354334FF000021A600F4B30
:1033E00003F5894358334FF000021A600B4B03F585
:1033F0008C43103300221A70084B03F58C430833BA
:103400004FF000021A60054B03F58C431433002281
:103410001A7000BFBD465DF8047B7047C065002090
:1034200080B483B000AF0346FB71B94B03F58C4306
:103430006D33FA791A70FB79013B492B00F2558103
:1034400001A252F823F000BF713500087F35000853
:103450008D3500089B350008A9350008B7350008F0
:10346000C5350008D3350008EB360008E135000803
:10347000EB360008EB360008EB360008EB360008A8
:10348000EB360008EB360008EB360008EB36000898
:10349000EB360008EB360008EB360008EF35000885
:1034A0004336000897360008EB360008EB36000874
:1034B000EB360008EB360008EB360008EB36000868
:1034C000EB360008FD35000851360008A536000827
:1034D000EB360008EB360008EB360008EB36000848
:1034E000EB360008EB360008EB3600080B36000818
:1034F0005F360008B3360008EB360008EB360008EC
:10350000EB360008EB360008EB360008EB36000817
:10351000EB360008193600086D360008C136000881
:10352000EB360008EB360008EB360008EB360008F7
:10353000EB360008EB360008EB36000827360008AB
:103540007B360008CF360008EB360008EB36000863
:10355000EB360008EB360008EB360008EB360008C7
:10356000EB3600083536000889360008DD360008DD
:10357000674B03F58C437033664A1A60C2E0644BB4
:1035800003F58C437033644A1A60BBE0604B03F56B
:103590008C437033614A1A60B4E05D4B03F58C4391
:1035A00070335F4A1A60ADE0594B03F58C437033BA
:1035B0005C4A1A60A6E0564B03F58C4370335A4AB6
:1035C0001A609FE0524B03F58C437033574A1A60E0
:1035D00098E04F4B03F58C437033554A1A6091E0E5
:1035E0004B4B03F58C437033524A1A608AE0484BC8
:1035F00003F58C437033504A1A6083E0444B03F563
:103600008C4370334D4A1A607CE0414B03F58C4388
:1036100070334B4A1A6075E03D4B03F58C437033B1
:10362000484A1A606EE03A4B03F58C437033464AC1
:103630001A6067E0364B03F58C437033434A1A60D7
:1036400060E0334B03F58C437033414A1A6059E014
:103650002F4B03F58C4370333E4A1A6052E02C4BDB
:1036600003F58C4370333C4A1A604BE0284B03F55A
:103670008C437033394A1A6044E0254B03F58C4380
:103680007033374A1A603DE0214B03F58C437033A9
:10369000344A1A6036E01E4B03F58C437033324ACD
:1036A0001A602FE01A4B03F58C4370332F4A1A60CF
:1036B00028E0174B03F58C4370332D4A1A6021E044
:1036C000134B03F58C4370332A4A1A601AE0104BEF
:1036D00003F58C437033284A1A6013E00C4B03F552
:1036E0008C437033254A1A600CE0094B03F58C4378
:1036F0006D3300221A70064B03F58C4370330022A1
:103700001A6000BF00BF0C37BD465DF8047B7047F0
:10371000C065002034AC002038AC00203CAC002058
:103720001813002016130020041300200D1300208E
:103730000E1300202013002010AF002070B20020D4
:10374000D0B5002030B9002090BC0020F0BF002090
:1037500040AF0020A0B2002000B6002060B90020D9
:10376000C0BC002020C0002070AF0020D0B20020DC
:1037700030B6002090B90020F0BC002050C00020DE
:1037800080B582B000AF44F29861444841F0DCFE5D
:103790000023FB710AE0FB79404A134403F581439F
:1037A0000833FF221A70FB790133FB71FB79032B7D
:1037B000F1D90023FB710AE0FB79384A134403F581
:1037C00081430C33FF221A70FB790133FB71FB79C3
:1037D000072BF1D9314B03F58C436C3300221A705F
:1037E0000020FFF71DFE2D4B03F58D4300221A70BC
:1037F000FFF764FDFFF74AFDFFF770FD274B03F568
:103800008C434033DA78012161F3C402DA70234B30
:1038100003F58C4340331A684A2161F3D1221A60C0
:103820001E4B03F58C4340339A7842F004029A70A1
:103830001A4B03F58C4340331A886FF3CA021A807F
:103840003121174817F090F8144B03F58C433033AF
:10385000DA78012161F3C402DA70104B03F58C436E
:1038600030331A684B2161F3D1221A600B4B03F5F8
:103870008C4330339A7842F004029A70074B03F578
:103880008C4330331A886FF3CA021A8031210548FD
:1038900017F06AF800BF0837BD4680BDC06500203C
:1038A00000AC0020F0AB002080B588B000AF03462C
:1038B000FB71082000F092F907F1140318463CF060
:1038C000C7F907F1140319461E483CF055F91D4B82
:1038D00000221A851B4B4FF0FF32DA62194B00228F
:1038E0005A6207F1080318463CF0CEFB00237B81A7
:1038F0000123BB810023FB8105233B8200233B8105
:1039000007F1080319460F483CF06AFB04233B818A
:1039100007F1080319460B483CF062FBFB79002BCA
:1039200001D0002200E002220023022105483CF0E1
:10393000C9FC012103483CF0E5F900BF2037BD4632
:1039400080BD00BF000C004080B58AB000AF786039
:10395000396000237B6200233B620023FB6100236C
:10396000BB617B681B8A9BB27B627B6A23F44053FA
:103970007B623B68DB881A467B6A13437B627B6A07
:103980009AB27B681A827B689B899BB27B627B6A56
:1039900023F4B05323F00C037B623B689A883B68A6
:1039A0001B8913439AB23B685B8913439BB21A4647
:1039B0007B6A13437B627B6A9AB27B689A817B68DD
:1039C0009B8A9BB27B627B6A23F440737B623B6879
:1039D0009B891A467B6A13437B627B6A9AB27B6837
:1039E0009A8207F1080318460CF042F87B68304AC7
:1039F000934203D07B682F4A934202D17B693B629A
:103A000001E03B693B627B689B899BB21BB2002B48
:103A10000CDA3A6A13469B0013449A001A443B6836
:103A20001B685B00B2FBF3F3FB610BE03A6A1346E1
:103A30009B0013449A001A443B681B689B00B2FB2E
:103A4000F3F3FB61FB691C4AA2FB03235B091B0127
:103A50007B627B6A1B09642202FB03F3FA69D31AB7
:103A6000BB617B689B899BB21BB2002B0CDABB69E4
:103A7000DB003233104AA2FB03235B0903F0070388
:103A80007A6A13437B620BE0BB691B0132330A4A3B
:103A9000A2FB03235B0903F00F037A6A13437B62E3
:103AA0007B6A9AB27B681A8100BF2837BD4680BD09
:103AB00000100140001401401F85EB5180B483B019
:103AC00000AF78600B46FB70FB78002B08D07B685A
:103AD0009B899BB243F400539AB27B689A8107E0BA
:103AE0007B689B899BB223F400539AB27B689A81CE
:103AF00000BF0C37BD465DF8047B704780B487B0CB
:103B000000AF78600B467B8013467B7000233B61DF
:103B10000023FB600023BB6000237B617B687B612B
:103B20007B88DBB25B09DBB23B617B8803F01F0360
:103B3000FB600122FB6802FA03F3BB603B69012BC7
:103B400003D17B690C337B6109E03B69022B03D114
:103B50007B6910337B6102E07B6914337B617B7886
:103B6000002B06D07B697A691168BA680A431A602B
:103B700006E07B697A691168BA68D2430A401A6024
:103B800000BF1C37BD465DF8047B704780B582B02E
:103B900000AF786039603A680021786841F0E0FD54
:103BA00000BF0837BD4680BD80B483B000AF7860E9
:103BB0000949094B1A6C7B68DB4313400B640649C7
:103BC000054B1A6A7B6813430B6200BF0C37BD4676
:103BD0005DF8047B704700BF0038024080B483B0BA
:103BE00000AF78600F490F4B1A6C7B68DB431340C2
:103BF0000B640C490B4B1A6A7B6813430B6209492F
:103C0000084B1A6C7B6813430B640649054B1A6A10
:103C10007B68DB4313400B6200BF0C37BD465DF889
:103C2000047B70470038024080B483B000AF7860F6
:103C30000F490F4B5A6C7B68DB4313404B640C49B4
:103C40000B4B5A6A7B6813434B620949084B5A6C09
:103C50007B6813434B640649054B5A6A7B68DB4318
:103C600013404B6200BF0C37BD465DF8047B7047C4
:103C70000038024080B584B000AF03460A46FB71AD
:103C80001346BB71FB793B73BB797B730023BB731A
:103C90000023FB7307F10C0318463CF0BBFD00BF8B
:103CA0001037BD4680BD80B584B000AF03460A46DC
:103CB000FB711346BB71FB793B73BB797B730023AC
:103CC000BB730123FB7307F10C0318463CF0A2FD04
:103CD00000BF1037BD4680BD80B483B000AF7860B0
:103CE00039607A683B689A4201DA7B6800E03B6899
:103CF00018460C37BD465DF8047B704780B483B02E
:103D000000AF786039607A683B689A4201DD7B6871
:103D100000E03B6818460C37BD465DF8047B7047F1
:103D200080B485B000AFF860B9607A60FA68BB68AB
:103D30009A4201DCBB6806E0FA687B689A4201DBC4
:103D40007B6800E0FB6818461437BD465DF8047BCD
:103D5000704780B483B000AF786039607A683B68A0
:103D60009A4201D27B6800E03B6818460C37BD469A
:103D70005DF8047B704780B483B000AF7860396031
:103D80007A683B689A4201D97B6800E03B68184634
:103D90000C37BD465DF8047B704780B485B000AF3A
:103DA000F860B9607A60FA68BB689A4201D8BB686B
:103DB00006E0FA687B689A4201D37B6800E0FB6802
:103DC00018461437BD465DF8047B704780B485B053
:103DD00000AF87ED030AC7ED020A87ED011A97EDE0
:103DE000037AD7ED027AB4EEE77AF1EE10FA01D851
:103DF000BB680BE097ED037AD7ED017AB4EEE77A72
:103E0000F1EE10FA01DB7B6800E0FB6807EE903A08
:103E1000B0EE670A1437BD465DF8047B70470000BA
:103E200080B483B000AF78600B4A0B4B9B8A9BB287
:103E300043F001039BB29382074B00225A6200BFFA
:103E4000054B5A6A7B689A42FAD300BF0C37BD46CD
:103E50005DF8047B704700BF0004004080B584B06B
:103E600000AF78600023FB6006E04FF47A70FFF744
:103E7000D7FFFB680133FB60FA687B689A42F4D392
:103E800000BF1037BD4680BD80B584B000AF7860FC
:103E90000023FB6006E04FF47A70FFF7DFFFFB685A
:103EA0000133FB60FA687B689A42F4D300BF103795
:103EB000BD4680BD80B483B000AFEFF310833B609C
:103EC0003B687B607B68002B00D172B67B6818462C
:103ED0000C37BD465DF8047B704780B483B000AFFB
:103EE00078607B68002B00D162B600BF0C37BD46FE
:103EF0005DF8047B704780B483B000AF87ED010AA2
:103F0000F1EEC07A00BFB0EE670A0C37BD465DF82F
:103F1000047B704780B483B000AF78600B46FB70C1
:103F2000FB78072B3AD801A252F823F04D3F000846
:103F3000573F0008613F00086B3F0008753F0008CD
:103F40007F3F0008893F0008933F00087B68194ABB
:103F50001068186027E07B68174A1068186022E034
:103F60007B68164A106818601DE07B68144A106868
:103F7000186018E07B68134A1068186013E07B68CB
:103F8000114A106818600EE07B68104A10681860CB
:103F900009E07B680E4A1068186004E07B680D4AEF
:103FA0001068186000BF7B6818460C37BD465DF886
:103FB000047B704708D304080CD3040810D304080A
:103FC00014D3040818D304081CD3040820D304080D
:103FD00024D3040828D3040880B485B000AF7860E7
:103FE00039600023FB730023BB607B681B6823F0F0
:103FF00002027B681A607B681B6843F001027B68E1
:104000001A6002E0BB680133BB607B685B6803F049
:104010000103012B04D0BB684FF6FF729342F1D12C
:104020007B685B6803F00103012B02D00023FB7364
:104030009CE03B689B79012B06D17B681B6843F0B1
:1040400080027B681A6005E07B681B6823F08002B1
:104050007B681A603B68DB79012B06D17B681B68A3
:1040600043F040027B681A6005E07B681B6823F020
:1040700040027B681A603B681B7A012B06D17B6883
:104080001B6843F020027B681A6005E07B681B68B0
:1040900023F020027B681A603B685B7A012B06D113
:1040A0007B681B6843F010027B681A6005E07B6840
:1040B0001B6823F010027B681A603B689B7A012B17
:1040C00006D17B681B6843F008027B681A6005E034
:1040D0007B681B6823F008027B681A603B68DB7A08
:1040E000012B06D17B681B6843F004027B681A60D1
:1040F00005E07B681B6823F004027B681A603B685C
:104100009B789A073B68DB781B061A433B681B7950
:104110001B041A433B685B791B051A433B681B88E9
:10412000013B1A437B68DA617B681B6823F001025C
:104130007B681A600023BB6002E0BB680133BB6090
:104140007B685B6803F00103012B04D1BB684FF669
:10415000FF729342F1D17B685B6803F00103012B8E
:1041600002D10023FB7301E00123FB73FB7B1846A4
:104170001437BD465DF8047B7047000080B485B0FD
:1041800000AF78600023FB607B689B7A1A460123AE
:104190009340FB60564A564BD3F8003243F001037C
:1041A000C2F800325249524BD3F81C22FB68DB4361
:1041B0001340C1F81C327B681B7B002B25D14C4976
:1041C0004B4BD3F80C22FB68DB431340C1F80C3295
:1041D00047497B689B7A18467B68DB881B047A68B2
:1041E00052881A4300F1480341F8332040497B6864
:1041F0009B7A18467B689B881B047A6812881A434E
:1042000000F14803DB000B445A607B681B7B012BE9
:1042100024D13749364BD3F80C22FB681343C1F83D
:104220000C3233497B689B7A18467B681B881B04D9
:104230007A6852881A4300F1480341F833202C4928
:104240007B689B7A18467B689B881B047A68D288B7
:104250001A4300F14803DB000B445A607B68DB7AA9
:10426000002B09D12249224BD3F80422FB68DB43FF
:104270001340C1F8043207E01D491D4BD3F8042256
:10428000FB681343C1F804327B681B89002B08D1FB
:104290001749174BD3F81422FB68DB431340C1F8CE
:1042A00014327B681B89012B07D11149104BD3F8BD
:1042B0001422FB681343C1F814327B685B7B012B2B
:1042C00007D10B490A4BD3F81C22FB681343C1F8F2
:1042D0001C32074A064BD3F8003223F00103C2F820
:1042E000003200BF1437BD465DF8047B704700BF45
:1042F0000064004080B483B000AF78607B68002227
:104300009A717B680022DA717B6800221A727B68DE
:1043100000225A727B6800229A727B680022DA724D
:104320007B6800229A707B680022DA707B68032227
:104330001A717B6802225A717B6801221A8000BFC1
:104340000C37BD465DF8047B7047000080B500AFB8
:10435000024803F05FFB00BF80BD00BFDCF0040833
:1043600080B400AF044B4AF6AA221A6000BFBD46D3
:104370005DF8047B704700BF0030004080B584B01A
:1043800000AFF8607A603B600B46FB72F86831F072
:104390008FF8F86800F01DF8FB683A68C3F8E42568
:1043A000FB68BA69C3F8E825FB687A68C3F8EC25AE
:1043B000FB7A1946F86837F02DFFFB68D3F8E8352B
:1043C0001B689847F86831F084F800BF1037BD4685
:1043D00080BD80B483B000AF7860002318460C37EE
:1043E000BD465DF8047B704780B584B000AF78604F
:1043F00007F108031946786831F094FC3B7A03F022
:104400001F03012B0AD0022B0FD0002B14D107F170
:1044100008031946786831F0AFF816E007F1080391
:104420001946786831F0F8F80FE007F108031946EB
:10443000786831F025F908E03B7A23F07F03DBB29E
:104440001946786838F07BF800BF0023184610370B
:10445000BD4680BD80B584B000AF78600B46FB7070
:10446000FB78002B44D17B6803F55D73FB607B68B0
:1044700093F81131032B4ED1FB68DA69FB689B6816
:104480009A4220D9FB68DA69FB689B68D21AFB68FC
:10449000DA617B68DB78012B06D1FB68DA68FB68A0
:1044A0009B681A44FB68DA60FB68D968FB689A6805
:1044B000FB68DB69934228BF13469BB21A467868B3
:1044C0003BF015FB27E07B68D3F8E4351B69002B34
:1044D0000AD07B6893F81231032B05D17B68D3F89F
:1044E000E4351B697868984778683BF014FB12E064
:1044F0007B68D3F8E4359B69002B0CD07B6893F87C
:104500001231032B07D17B68D3F8E4359B69FA7825
:10451000114678689847002318461037BD4680BD7D
:1045200080B584B000AF78600B46FB70FB78002B41
:104530006BD17B6803F58E73FB607B6893F8113158
:10454000022B55D1FB68DA69FB689B689A421BD93C
:10455000FB68DA69FB689B68D21AFB68DA617B68E2
:10456000DB78012B06D1FB68DA68FB689B681A448C
:10457000FB68DA60FB68D968FB68DB699BB21A46A6
:1045800078683BF080FA33E0FB681B6AFA6892684F
:10459000B3FBF2F102FB01F29B1A002B14D1FB6872
:1045A0001A6AFB689B689A420ED3FB681A6AFB681A
:1045B0005B6A9A4208D20022002178683BF063FAD5
:1045C000FB6800225A6213E07B68D3F8E435DB68AD
:1045D000002B0AD07B6893F81231032B05D17B683E
:1045E000D3F8E435DB687868984778683BF0ABFA35
:1045F0007B6893F81631012B1AD1786800F01EF809
:104600007B68002283F8162112E07B68D3F8E4353A
:104610005B69002B0CD07B6893F81231032B07D118
:104620007B68D3F8E4355B69FA7811467868984777
:10463000002318461037BD4680BD000080B483B00B
:1046400000AF78607B681B69044A12685A600023D7
:1046500018460C37BD465DF8047B7047E01A002011
:1046600080B582B000AF78600023402200217868D6
:1046700037F053FE002340228021786837F04DFE4A
:104680007B68012283F812217B68D3F8E8355B68E8
:104690007A68927810469847002318460837BD4636
:1046A00080BD80B582B000AF78607B68D3F8E83514
:1046B0001B6998477B6893F813217B6883F8122164
:1046C0007B68032283F81221002318460837BD4671
:1046D00080BD80B582B000AF78607B6893F812210E
:1046E0007B6883F813217B68042283F812217B689E
:1046F000D3F8E835DB689847002318460837BD46ED
:1047000080BD80B582B000AF78607B68D3F8E435B7
:10471000DB69002B05D07B68D3F8E435DB6978686A
:104720009847002318460837BD4680BD80B582B043
:1047300000AF78600B46FB707B68D3F8E4351B68EC
:10474000FA781146786898477B68D3F8E8359B6813
:104750009847002318460837BD4680BD80B582B013
:1047600000AF78600B46FB707B68D3F8E4355B687C
:10477000FA78114678689847002318460837BD46EE
:1047800080BD80B582B000AF78607B68D3F8E43537
:104790001B6A78689847002318460837BD4680BDD5
:1047A00080B582B000AF78607B68D3F8E4355B6A8F
:1047B00078689847002318460837BD4680BD00003A
:1047C00080B500AFFCF71EFC0346002B2AD00E4B31
:1047D00040F201121A600C4B1B6818463BF03AFF7E
:1047E0000A483BF037FF0A483BF034FF09483BF0EA
:1047F00031FF09483BF02EFF08483BF02BFF0848EB
:104800003BF028FFA2E200BFE44B00200B0E0A00A1
:104810000C0E0A0030420900310209001C42090056
:104820001D0209004FF0FF303BF014FF4FF0FF3046
:104830003BF010FF4FF0FF303BF00CFF4FF0FF302C
:104840003BF008FF4FF0FF303BF004FF4FF0FF302C
:104850003BF000FF4FF0FF303BF0FCFE4FF0FF302D
:104860003BF0F8FE4FF0FF303BF0F4FEDF483BF04A
:10487000F1FEDF483BF0EEFEDE483BF0EBFE44F29B
:1048800004003BF0E7FE40F257303BF0E3FE4FF40C
:1048900056703BF0DFFE4FF0FF303BF0DBFE4FF099
:1048A000FF303BF0D7FE4FF0FF303BF0D3FE4FF030
:1048B000FF303BF0CFFE40F67C103BF0CBFECE4805
:1048C0003BF0C8FECD483BF0C5FE43F61C103BF064
:1048D000C1FECB483BF0BEFE43F628103BF0BAFECB
:1048E00040F633103BF0B6FE44F284003BF0B2FEDB
:1048F00044F285003BF0AEFE44F287003BF0AAFE96
:1049000044F286003BF0A6FE40F637103BF0A2FED4
:1049100040F206303BF09EFE40F259303BF09AFEEA
:1049200040F25A303BF096FE42F622103BF092FEE7
:1049300044F28B003BF08EFE44F28A003BF08AFE8C
:1049400044F22D003BF086FE44F289003BF082FEEB
:1049500042F646103BF07EFE4FF0FF303BF07AFE11
:1049600040F688103BF076FE44F245003BF072FEC4
:1049700044F244003BF06EFE44F242003BF06AFE1B
:1049800044F243003BF066FE42F620103BF062FE2C
:104990009C483BF05FFE9C483BF05CFE9B483BF034
:1049A00059FE9B483BF056FE40F205303BF052FE6C
:1049B00040F607103BF04EFE40F624103BF04AFE56
:1049C00040F625103BF046FE40F61B103BF042FE41
:1049D00040F656103BF03EFE8E4B40F223121A601A
:1049E0008C4B1B6818463BF035FE40F67F103BF0C1
:1049F00031FE40F67D103BF02DFE40F67E103BF080
:104A000029FE40F629103BF025FE40F66E103BF0E3
:104A100021FE40F66D103BF01DFE40F621103BF0EC
:104A200019FE40F602103BF015FE4FF0FF303BF050
:104A300011FE4FF0FF303BF00DFE4FF0FF303BF02A
:104A400009FE4FF0FF303BF005FE40F20E203BF038
:104A500001FE40F20F203BF0FDFD40F213203BF041
:104A6000F9FD40F20D203BF0F5FD4FF405703BF0F1
:104A7000F1FD42F23B103BF0EDFD4FF0FF303BF01B
:104A8000E9FD4FF0FF303BF0E5FD4FF0FF303BF02C
:104A9000E1FD40F22E303BF0DDFD40F22F303BF0E7
:104AA000D9FD5D483BF0D6FD5C483BF0D3FD5C484A
:104AB0003BF0D0FD5B483BF0CDFD5B483BF0CAFDD1
:104AC0005A483BF0C7FD5A483BF0C4FD59483BF0FB
:104AD000C1FD59483BF0BEFD58483BF0BBFD58486E
:104AE0003BF0B8FD57483BF0B5FD57483BF0B2FDF1
:104AF00056483BF0AFFD56483BF0ACFD55483BF007
:104B0000A9FD55483BF0A6FD54483BF0A3FD544891
:104B10003BF0A0FD53483BF09DFD53483BF09AFD10
:104B200052483BF097FD52483BF094FD51483BF012
:104B300091FD51483BF08EFD50483BF08BFD5048B5
:104B40003BF088FD4F483BF085FD4F483BF082FD30
:104B50004E483BF07FFD4E483BF07CFD4D483BF01E
:104B600079FD4D483BF076FD4C483BF073FD4C48D9
:104B70003BF070FD4B483BF06DFD4B483BF06AFD50
:104B80004A483BF067FD4A483BF064FD49483BF02A
:104B900061FD49483BF05EFD48483BF05BFD40F657
:104BA00035103BF057FD46483BF054FD45483BF07F
:104BB00051FD40F634103BF04DFD43483BF04AFDBB
:104BC00040F632103BF046FD44F210003BF042FD4F
:104BD0003E483BF03FFD40F63C103BF03BFD44F2CD
:104BE00062003BF037FD44F2630071E0033E0100D8
:104BF00000420200014202001E0205001F020500E1
:104C00001D02050018420900190209001542090099
:104C100016020900E44B00200B0E0A000C0E0A00DD
:104C20000A0E0A002702080050020C0051020C0074
:104C300060020C0061020C0052020C0053020C00D6
:104C400054020C0055020C005C020C005D020C00CA
:104C50005E020C005F020C0064020C0065020C0096
:104C600068020C003E020C003F020C004D020C00DA
:104C70004E020C004F020C0038020C0039020C00EE
:104C80003A020C0030020C0031020C0047020C000A
:104C900048020C0049020C004A020C004B020C00B6
:104CA0004C020C0040020C0041020C0077020C0088
:104CB0006F020C0076020C005B020C0075020C0007
:104CC0002B0206002C0206002A020600260208001B
:104CD0003BF0C0FC44F267003BF0BCFC44F26600D1
:104CE0003BF0B8FC40F609103BF0B4FC40F608106D
:104CF0003BF0B0FC4FF481403BF0ACFC44F281004F
:104D00003BF0A8FC44F283003BF0A4FC44F2820098
:104D10003BF0A0FC40F63D103BF09CFC40F636100A
:104D20003BF098FC44F269003BF094FC44F26A00CA
:104D30003BF090FC44F26C003BF08CFC44F26B00C6
:104D40003BF088FC40F617103BF084FC00BF80BDB0
:104D500080B483B000AF0346FB71FB79012B0AD00E
:104D6000022B0FD0002B14D1104B03225A610F4B92
:104D700001229A6114E00D4B02225A610B4B022270
:104D80009A610DE0094B01225A61084B01229A6198
:104D900006E0064B00225A61044B00229A6100BFD4
:104DA00000BF0C37BD465DF8047B7047E81A002051
:104DB00080B582B000AF40F2E4610D48FEF7E6FE38
:104DC0000C4B0B4AC3F8B8240A4BD3F8B8347B60B9
:104DD00005E07B68FF221A707B682A337B607B6862
:104DE000054A9342F5D300BF0837BD4680BD00BFDA
:104DF000A41F0020E81A00208826002080B586B075
:104E000000AFF860B9607A607B6893F82730002BB8
:104E100034D07B6893F92530002B2FD07B6893F832
:104E20002330FB747B6893F827007B6893F8281085
:104E30007B6893F8262007F1130313F0D1FE786105
:104E4000FB7C9AB27B6893F824309BB219461046DB
:104E500035F0D6FF7B6893F822107B6893F92530F4
:104E60001A46786936F09CFFFB6818B2BB6819B225
:104E70007B6893F822307A6936F042FA00BF18371F
:104E8000BD4680BD80B584B000AFF860B9607A607F
:104E90007B68DB79002B13D07B685B799AB27B68E7
:104EA0009B799BB21946104635F0AAFFFB6818B2F1
:104EB000BB6819B27B68DA1D7B681B7936F020FA73
:104EC00000BF1037BD4680BD80B582B000AF2D4B0E
:104ED00093F9BC34B3F1FF3F4DD036F02BFF0346BE
:104EE0007B80284B5B699AB27B8813449BB2013369
:104EF0003B803B8802333B80224B5B699AB23B8804
:104F000013443B803A887B88D31A3B801E4B7B60DE
:104F10002CE07B6893F90030B3F1FF3F2DD07B6824
:104F200093F90030002B0AD17B68B3F92030184682
:104F3000144B5B697A681946FFF760FF10E07B68E5
:104F4000B3F9203018463A887B6893F90030194647
:104F50007B8803FB01F313447A681946FFF74EFF81
:104F6000002000F0C3FB7B682A337B607B68074A24
:104F70009342CED302E000BF00E000BF0837BD4639
:104F800080BD00BFE81A0020A41F00208826002052
:104F900090B585B002AF334B93F9BC34B3F1FF3F0A
:104FA0005AD036F0C7FE03467B802E4B5B699AB21F
:104FB0007B8813449BB201333B80B7F9004036F045
:104FC00087FE03461A461F23009302232146002032
:104FD00036F0D4F93B8802333B80224B5B699AB2AE
:104FE0003B8813443B803A887B88D31A3B801E4B16
:104FF0007B602CE07B6893F90030B3F1FF3F2DD04C
:105000007B6893F90030002B0AD17B68B3F902303A
:105010001846144B5B697A681946FFF733FF10E0B6
:105020007B68B3F9023018463A887B6893F9003000
:1050300019467B8803FB01F313447A681946FFF78E
:1050400021FF002000F052FB7B682A337B607B68E5
:10505000064A9342CED302E000BF00E000BF0C3707
:10506000BD4690BDE81A0020A41F0020882600201D
:1050700080B582B000AF0346FB71FB79062118466C
:10508000FEF767FE034603F10B0213465B00134471
:105090005B00034A134418460837BD4680BD00BF75
:1050A0003801050880B400AF034B9B691846BD4624
:1050B0005DF8047B704700BFE81A002080B500AFA0
:1050C00036F006FE03465A1E024B9B69D31A184659
:1050D00080BD00BFE81A002080B500AF36F0F8FDB3
:1050E00003465B089BB2184680BD000080B483B0C5
:1050F00000AF7860054A7B681361044B0022DA60D8
:1051000000BF0C37BD465DF8047B7047E81A0020ED
:1051100080B400AF064B1B78002B04D0044BDB6837
:105120000133034AD36000BFBD465DF8047B70477E
:10513000E81A002080B400AF0A4B1B78002B0AD07D
:10514000084BDA68074B1B699A4204DB054B0022C7
:10515000DA60012300E000231846BD465DF8047BB9
:10516000704700BFE81A002090B585B000AF044634
:10517000084611461A462346FB710346BB800B4680
:10518000BB711346FB702C4B1B78002B50D02A4B65
:10519000D3F8B834294A93424AD2274BD3F8B834CB
:1051A000FB60FB68FA791A70FB68BA885A80FB6862
:1051B000BA791A71FB68FA785A71FB6897F820205F
:1051C0009A71FB6807331722796A184640F098FEF7
:1051D000FB6800229A77FB683A8D1A84FB6897F87F
:1051E0002C2083F82220FB6897F8302083F82320B6
:1051F000FB6897F8342083F82420FB6897F8382060
:1052000083F82520FB6897F83C2083F82620FB686C
:1052100097F8402083F82720FB6897F8442083F80C
:105220002820054BD3F8B8342A33034AC2F8B834DF
:1052300000BF1437BD4690BDE81A00208826002024
:1052400080B58EB00AAFBA601A460346FB730B46B0
:10525000BB811346FB80B7F90C1097F90F0097F844
:105260002430099397F8203008933B7F079397F9F0
:105270001830069383230593822304930223039318
:10528000B7F906300293BB68019381230093802312
:105290000022FFF769FF00BF1037BD4680BD90B503
:1052A0008DB00AAF0446084611461A462346FB71E4
:1052B0000346BB800B46BB711346FB70BA79FC7882
:1052C000B7F9041097F90700002309930023089306
:1052D00000230793002306930023059300230493E0
:1052E0000023039300230293FB6901933B7E009309
:1052F0002346FFF739FF00BF0C37BD4690BD0000C5
:1053000090B58DB00AAF0446084611461A462346AA
:10531000FB710346BB800B46BB711346FB7097F9CC
:10532000070097F82830099397F82430089397F8E6
:105330002030079397F91C3006933B7E0593FB784A
:105340000493BB790393B7F904300293064B01939E
:1053500000230093002300220021FFF705FF00BF78
:105360000C37BD4690BD00BFA401050890B58DB0B7
:105370000AAF0446084611461A462346FB71034607
:10538000BB800B46BB711346FB7097F907003B7F50
:1053900009933B7E0893FB78079397F906300693B1
:1053A000832305938223049302230393B7F90430E4
:1053B0000293064B01930023009300230022002157
:1053C000FFF7D2FE00BF0C37BD4690BDA401050813
:1053D00090B585B002AF78600B46FB70FB7818463D
:1053E00000F056FAFFF76AFE03461CB200230022C3
:1053F0000021022013F0F4FB034601938123009364
:105400000223022221460020FFF749FF7B68012288
:105410001A7000BF0C37BD4690BD000080B582B049
:1054200000AF0346FB711D4B1B78002B31D0FB797D
:10543000012B17D10021802036F06AFD1F21822028
:1054400036F066FD4FF6FF71812036F061FD4FF6B4
:10545000FF71832036F05CFD4FF6FF71842036F03B
:1054600057FD16E04FF6FF71802036F051FD4FF6E4
:10547000E071822036F04CFD0021812036F048FD9D
:105480000021832036F044FD0021842036F040FDC9
:1054900000BF00BF0837BD4680BD00BFE81A00202E
:1054A00080B400AF034B1B7A1846BD465DF8047B01
:1054B000704700BFE81A002080B400AF034B5B7A4E
:1054C0001846BD465DF8047B704700BFE81A00200F
:1054D00080B483B000AF0346FB71044AFB7953727A
:1054E00000BF0C37BD465DF8047B7047E81A00200A
:1054F00080B582B000AF0346FB71144B1B78002BC4
:1055000020D0124AFB791372104AFB795372FFF7CD
:105510004FFCFB79002B02D114F046FD12E08420F1
:1055200036F0D8FC0346184636F0BAFBFB7918462D
:1055300014F006FD012000F0D9F8FFF729FDFFF770
:10554000C3FC00BF00BF0837BD4680BDE81A00207D
:1055500080B500AF034B1B7A1846FFF7C9FF00BFA9
:1055600080BD00BFE81A002080B500AF054B1B7856
:10557000002B05D0034B1B7A002B01D0FFF7A4FCB6
:1055800000BF80BDE81A002080B500AF514B03F585
:105590008C4368331B68002B14BF01230023D9B24E
:1055A0004C4B03F58C4358331A7861F3C7121A70C9
:1055B000484B03F58C436233B3F90030002BCCBF6A
:1055C00001230023D9B2434B03F58C4358331A7897
:1055D00061F386121A703F4B03F58C436033B3F9C5
:1055E0000030002BCCBF01230023D9B2394B03F587
:1055F0008C4358331A7861F345121A70354B03F512
:105600008C4350331B68002B14BF01230023D9B2F5
:10561000304B03F58C4358331A7861F304121A7037
:105620002D4B1B78002B14BF01230023D9B2294B2B
:1056300003F58C4358331A7861F3C3021A70274B71
:105640001B78002B04D108F05BFD0346002B01D032
:10565000012300E00023DBB203F00103D9B21D4BAC
:1056600003F58C4358331A7861F382021A701C4B8D
:105670001B78002B03D11B4B1B68002B01D001238F
:1056800000E00023DBB203F00103D9B2114B03F5B4
:105690008C4358331A7861F341021A70124BD3F8D5
:1056A000F83F5B7A03F00403DBB2002B14BF012345
:1056B0000023D9B2074B03F58C4358331A7861F3B2
:1056C00000021A70034B03F58C4358331B681846CD
:1056D00080BD00BFC06500200D1300200E13002008
:1056E0001613002018130020B4550020B0B58EB05A
:1056F00004AF0346FB71644B1B78002B00F0BF80A6
:10570000614B5B78002B00F0BA80842036F0E2FB1E
:105710000346FB83FFF738FFB8615C4B03F58C430E
:105720005C331B687B61BA697B699A4203D1FB7960
:10573000002B00F0A48036F0EFFA0346013B7B8299
:1057400036F0F8FA0346013B3B8200233B628CE0D3
:1057500001223B6A02FA03F3FB60BA697B695A4093
:10576000FB681340002B02D1FB79002B7AD03B6AF7
:10577000072B22D801A252F823F000BF9D57000842
:10578000A5570008A5570008A5570008AD57000801
:10579000AD570008AD570008B55700084FF47843DF
:1057A000FB840DE04FF64053FB8409E04FF6E073B5
:1057B000FB8405E01F23FB8402E00023FB8400BF81
:1057C000FB79002B24D0304B9B699AB23B6AC3F122
:1057D00007039BB2798A11FB03F39BB213449BB27C
:1057E00018B2294B5B6919B2BA69FB681340002BE8
:1057F00001D0FB8C01E046F64D333C8A7A8A029355
:10580000FB8B019301230093234636F015F929E021
:105810001D4B9B699AB23B6AC3F107039BB2798A1D
:1058200011FB03F39BB213449BB201339BB218B23A
:10583000154B5B699BB201339BB219B27B8A023B69
:105840009CB23B8A023B9DB2BA69FB681340002BB5
:1058500001D0FB8C01E046F64D3300932B462246E7
:1058600036F05AF83B6A01333B623B6A072B7FF7FD
:105870006FAF064B03F58C435C33BA691A6000BF07
:105880002837BD46B0BD00BFE81A0020C065002023
:1058900080B483B000AF0346FB71044AFB795370B8
:1058A00000BF0C37BD465DF8047B7047E81A002046
:1058B000F0B591B004AF03463960FB71002387F85F
:1058C0002F30FB79632B00F22A8301A252F823F0D8
:1058D000615A0008675A00086D5A0008795A000892
:1058E000855A0008975A0008C55A0008D75A000878
:1058F000E35A0008EF5A0008015B0008095B000842
:105900001F5B00081F5F00081F5F00081F5F000883
:105910001F5F00081F5F00081F5F00081F5F00086F
:10592000315B00083D5B0008475B0008515B0008E5
:10593000635B0008835B0008A35B0008B75B00089B
:105940001F5F00081F5F00081F5F00081F5F00083F
:105950001F5F00081F5F00081F5F00081F5F00082F
:105960001F5F00081F5F00081F5F00081F5F00081F
:10597000C35B0008DB5B0008F35B0008155C0008F4
:10598000375C0008675C0008935C0008B55C0008A1
:10599000E95C0008115D0008355D0008655D0008E0
:1059A0008F5D0008BF5D00081F5F00081F5F0008D3
:1059B0001F5F00081F5F00081F5F00081F5F0008CF
:1059C000455E00088B5E00081F5F00081F5F00082F
:1059D0001F5F00081F5F00081F5F00081F5F0008AF
:1059E0001F5F00081F5F00081F5F00081F5F00089F
:1059F0001F5F00081F5F00081F5F00081F5F00088F
:105A00001F5F00081F5F00081F5F00081F5F00087E
:105A10001F5F00081F5F00081F5F00081F5F00086E
:105A20001F5F00081F5F00081F5F00081F5F00085E
:105A30001F5F00081F5F00081F5F00081F5F00084E
:105A40001F5F00081F5F00081F5F00081F5F00083E
:105A50001F5F00081F5F00081F5F0008095F000844
:105A600035F09EF85CE235F0A5F859E23B681B780A
:105A7000184635F0A9F853E23B681B88184636F003
:105A80000FF94DE23B681B78184635F023F90123E6
:105A900087F82F3044E23B681C7836F031F9034632
:105AA0001846A34B5968A24BDB6900220192009370
:105AB0000B4602460221204600F010FB012387F826
:105AC0002F302DE23B681B78184635F015F901237D
:105AD00087F82F3024E23B681B781846FFF7F8FC64
