:020000040800F2
:10000000C035012091D70008A5DC0008B9DC000844
:10001000CDDC0008E1DC0008F5DC00080000000091
:1000200000000000000000000000000009DD0008E2
:100030001DDD0008000000002BDD0008E55D000864
:100040001542000815420008154200081542000834
:100050001542000815420008F95C0008055D00081B
:10006000115D00081D5D0008295D000815420008AB
:100070001542000815420008154200081542000804
:1000800015420008154200081542000815420008F4
:10009000154200081542000815420008355D0008A9
:1000A000654F0008F14B0008A14F000815420008F9
:1000B00015420008DD4F00080150000815420008F5
:1000C00015420008154200081542000815420008B4
:1000D000154200081542000815420008395300086F
:1000E000415D000815420008C90B0308C151000812
:1000F000115200084D520008154200081542000830
:100100001542000815420008255000081542000855
:100110004D53000815420008695000082D51000891
:100120001542000815420008154200081542000853
:100130001542000815420008154200081542000843
:10014000154200081542000815420008D90B0308A3
:1001500015420008154200081542000861530008C6
:100160001542000815420008154200081542000813
:100170001542000815420008154200081542000803
:10018000154200081542000880B483B000AF034652
:10019000FB71FB7903F00F03092B06DCFB7903F0FD
:1001A0000F03DBB23033DBB205E0FB7903F00F0362
:1001B000DBB23733DBB218460C37BD465DF8047B43
:1001C000704780B483B000AF0346FB71FB79392BD5
:1001D00003D8FB79303BDBB202E0FB79373BDBB283
:1001E00018460C37BD465DF8047B704780B483B079
:1001F00000AF78607B68072B04DC7B68DBB23233AE
:10020000DBB217E07B68212B04DC7B68DBB239337F
:10021000DBB20FE07B683B2B04DC7B68DBB23F3357
:10022000DBB207E07B6803F00103002B01D0312330
:1002300000E0302318460C37BD465DF8047B70475C
:1002400080B58CB000AF0F4B9B79002B16D10E48B8
:1002500031F02CFB0B4B9B68184631F0EEF90B4844
:1002600031F0EBF93B460021184600F031F8034627
:10027000184631F00AFA034B01229A7100BF303759
:10028000BD4680BD8C140020A0530408B853040858
:1002900080B582B000AF786039603B68002B01D137
:1002A000074B00E0074B7A68074908483DF032FEEB
:1002B000064831F02DFB00BF0837BD4680BD00BFAA
:1002C000205404083454040844540408BC11012088
:1002D000F0B5AFB004AF78603960CF4B07F15C0484
:1002E0001D460FCD0FC495E80F0084E80F00CB4BDF
:1002F00007F13C041D460FCD0FC495E80F0084E8BC
:100300000F0001214FF480500DF0C2FB01214FF48A
:1003100080500DF03DFC00214FF480500DF038FC72
:10032000BF4B01229A607B68BE4A14469E4604F188
:10033000200C754626460FCE28606960AA60EB60E7
:1003400010340EF1100E6445F3D17546234607CBE9
:1003500028606960AA601B782B730023C7F8A4305B
:100360000AE0D7F8A4307A6813442A221A70D7F822
:10037000A4300133C7F8A430D7F8A4302B2BF0DD1C
:100380007B682C3300221A707B6803F108007B68BD
:1003900011337A681A32796823315F240C70097836
:1003A000117012781A701B7803703B68002B7FD095
:1003B0009D4BD86807F1080303F10C0107F108030E
:1003C00003F1100207F108030833029307F1080351
:1003D0000433019307F1080300930B4693493DF062
:1003E000BFFD0023C7F8A43029E0D7F8A430002BC4
:1003F00000DA0733DB109B0007F1A802134453F81F
:10040000A02CD7F8A430594203F0070301F00701EC
:1004100058BF4B42C3F107039B0022FA03F3DBB240
:1004200003F00F03D9B207F17C02D7F8A4301344CC
:100430000A461A70D7F8A4300133C7F8A430D7F8A9
:10044000A430172BD1DD1823C7F8A4302BE0D7F840
:10045000A430183B002B00DA03339B1003339B00BE
:1004600007F1A802134453F8A02CD7F8A43059423E
:1004700003F0030301F0030158BF4B42C3F1030330
:100480009B0022FA03F3DBB203F00F03D9B207F1AA
:100490007C02D7F8A43013440A461A70D7F8A43067
:1004A0000133C7F8A430D7F8A4301F2BCFDD4FE0BD
:1004B0000023C7F8A43024E0D7F8A430DA0F13449F
:1004C0005B101A465A4B13441B781A46D7F8A430CF
:1004D0000133002B03F00103B8BF5B429B0042FADB
:1004E00003F3DBB203F00F03D9B207F17C02D7F8B4
:1004F000A43013440A461A70D7F8A4300133C7F861
:10050000A430D7F8A430172BD6DD0023C7F8A430C9
:100510001AE0D7F8A430C3F11F03464A126822F448
:100520007041D7F8A420920021FA02F2D2B202F070
:100530000F02D2B207F1A8010B4403F82C2CD7F814
:10054000A4300133C7F8A430D7F8A430072BE0DD7E
:100550000023C7F8A43016E007F15C02D7F8A430F6
:1005600013441B7807F1A802134413F82C1C07F15D
:100570001C02D7F8A43013440A461A70D7F8A430E6
:100580000133C7F8A430D7F8A4301F2BE4DD0023D3
:10059000C7F8A43011E007F11C02D7F8A4301344C7
:1005A000197807F17C02D7F8A43013440A461A7070
:1005B000D7F8A4300133C7F8A430D7F8A4301F2BE4
:1005C000E9DD0023C7F8A4301DE0D7F8A4309B0074
:1005D00007F1A802134453F82C2CD7F8A4309B0041
:1005E00007F1A8010B4453F86C3C5A40D7F8A430EB
:1005F0009B0007F1A8010B4443F82C2CD7F8A4303A
:100600000133C7F8A430D7F8A430072BDDDD002371
:10061000C7F8A43027E000BFC8540408E854040811
:10062000003002406C5404088C1400209C540408D0
:10063000107AFF1F002004E007F17C02D7F8A430F5
:1006400013441B781846FFF79FFD0346194607F130
:100650007C02D7F8A43013440A461A70D7F8A430A5
:100660000133C7F8A430D7F8A4301F2BE4DD0023F2
:10067000C7F8A4300EE0404AD7F8A4309B0007F139
:10068000A8010B4453F82C3C1360D7F8A430013375
:10069000C7F8A430D7F8A430072BECDD0023C7F847
:1006A000A43018E0D7F8A430C3F12703324A116808
:1006B000D7F8A420920021FA02F2D2B202F00F027F
:1006C000D2B207F1A8010B4403F82C2CD7F8A430C0
:1006D0000133C7F8A430D7F8A430072BE2DD00239C
:1006E000C7F8A4301AE0D7F8A43003F12004D7F8F3
:1006F000A430203307F1A802134413F82C3C184609
:10070000FFF742FD03461A4607F1A803234403F806
:100710002C2CD7F8A4300133C7F8A430D7F8A43074
:10072000072BE0DD0023C7F8A43016E0D7F8A4209B
:100730001346DB0013441A467B689818D7F8A43098
:10074000DB0007F17C021344082219463DF078FFD4
:10075000D7F8A4300133C7F8A430D7F8A430042B5D
:10076000E4DD00214FF480500DF0D2F97B6818468B
:10077000AC37BD46F0BD00BF0030024080B586B04A
:1007800000AFF8607A603B600B46FB72224BDB796E
:10079000002B3CD0204B5B79002B38D0FA7AFB68D9
:1007A0001E491F483DF0B6FB1D4830F046FF0023B0
:1007B0007B611BE07B697A6813441B781A461949F0
:1007C00017483DF0A7FB164830F037FF7B695A42C7
:1007D00003F0030302F0030258BF5342032B02D17C
:1007E000202030F0C9FE7B6901337B61FB7A672BE7
:1007F00001D1142200E028227B699A42DADC0A48FF
:1008000030F01BFF386830F040FF31F013F900BFC3
:100810001837BD4680BD00BF8C1400200855040861
:10082000C81201201855040820550408B0B5C8B0F6
:1008300000AF3B1D18603B461960CD4B07F16804C3
:100840001D460FCD0FC495E8030084E80300C94B93
:1008500007F148041D460FCD0FC495E80F0084E84A
:100860000F00C54B07F128041D460FCD0FC495E8B6
:100870000F0007C4238007F10803C04A1C46154631
:100880000FCD0FC495E80F0084E80F003B1D1868DA
:100890003DF016FE03462C2B06D03B1D00211868A8
:1008A000FFF7F6FC0123A3E30023C7F81C312DE07A
:1008B000D7F81C319B0007F590721344002243F8CF
:1008C000802CD7F81C319B0007F59072134453F825
:1008D000802CD7F81C319B0007F590710B4443F82E
:1008E000582CD7F81C319B0007F59072134453F82D
:1008F000582CD7F81C319B0007F590710B4443F836
:10090000302CD7F81C310133C7F81C31D7F81C3113
:10091000092BCDDD9A4BDB79002B07D0984B5B7907
:10092000002B03D03B1D186831F064F801214FF40F
:1009300080500DF0ADF801214FF480500DF028F9F2
:1009400000214FF480500DF023F90023C7F818312F
:100950000023C7F81C3127E0D7F81C31591C894BFC
:1009600083FB01235A10CB17D21A1346DB00134422
:10097000CA1A002A12D0D7F81C313A1D1268134443
:10098000197807F1F002D7F8183113440A461A70A3
:10099000D7F818310133C7F8183100E000BFD7F895
:1009A0001C310133C7F81C31D7F81C312B2BD3DD98
:1009B000734BDB79002B0AD0714B5B79002B06D08F
:1009C00007F1F002704B64210020FFF7D7FE6F4B58
:1009D00001229A600023C7F81C310EE06B4AD7F859
:1009E0001C319B0007F590710B4453F8303C1360A9
:1009F000D7F81C310133C7F81C31D7F81C31072B4D
:100A0000ECDD0023C7F81C3118E0D7F81C31C3F126
:100A100027035E4A1168D7F81C21920021FA02F2DE
:100A2000D2B202F00F02D2B207F590710B4403F874
:100A3000582CD7F81C310133C7F81C31D7F81C31BA
:100A4000072BE2DD4E4BDB79002B0AD04C4B5B7958
:100A5000002B06D007F1C8024D4B6B210020FFF799
:100A60008DFE0023C7F81C311AE0D7F81C3103F1C2
:100A70002004D7F81C31203307F59072134413F883
:100A8000583C1846FFF780FB03461A4607F590735B
:100A9000234403F8582CD7F81C310133C7F81C3114
:100AA000D7F81C31072BE0DD354BDB79002B0AD062
:100AB000334B5B79002B06D007F1C802354B6B2115
:100AC0000120FFF75BFED7F8EC20D7F814319A42EB
:100AD00005D1D7F8E820D7F810319A420BD03B1D4A
:100AE00001211868FFF7D4FB00214FF480500DF06E
:100AF0000FF801237CE2224BDB79002B06D0204B40
:100B00005B79002B02D0244830F074FF0023C7F833
:100B10001C3116E007F1F002D7F81C3113441B78A2
:100B20001846FFF74EFB0346194607F1F002D7F8C7
:100B30001C3113440A461A70D7F81C310133C7F828
:100B40001C31D7F81C311F2BE4DD0D4BDB79002B5A
:100B50000AD00B4B5B79002B06D007F1F0020F4B4C
:100B600064210120FFF70AFE0023C7F81C312EE0A4
:100B700094550408C8540408AC550408E854040803
:100B80008C140020398EE3382455040800300240CC
:100B9000305504083C5504084455040854550408CD
:100BA00007F14802D7F81C3113441B7807F59072FF
:100BB000134413F8301C07F18002D7F81C3113449A
:100BC0000A461A70D7F81C310133C7F81C31D7F820
:100BD0001C311F2BE4DD0023C7F81C3111E007F1A5
:100BE0008002D7F81C311344197807F1F002D7F8C6
:100BF0001C3113440A461A70D7F81C310133C7F868
:100C00001C31D7F81C311F2BE9DDC44BDB79002BDD
:100C10000AD0C24B5B79002B06D007F1F002C04B23
:100C200064210220FFF7AAFD0023C7F81C3125E04C
:100C3000D7F81C315B0007F59072134413F8303C71
:100C40001B015AB2D7F81C315B00013307F59071D4
:100C50000B4413F8303C5BB203F00F035BB2134359
:100C60005BB2D9B207F1A002D7F81C3113440A468F
:100C70001A70D7F81C310133C7F81C31D7F81C3172
:100C80000F2BD5DDA54BDB79002B0AD0A34B5B796D
:100C9000002B06D007F1A002A24B67210020FFF72E
:100CA0006DFD0023C7F81C311BE0D7F81C319B00F9
:100CB00007F59072134453F8802C07F10803D7F816
:100CC0001C1153F821305A40D7F81C319B0007F50E
:100CD00090710B4443F8802CD7F81C310133C7F8CE
:100CE0001C31D7F81C31032BDFDD8C4BDB79002B5B
:100CF0000AD08A4B5B79002B06D007F1A0028A4B01
:100D000067210120FFF73AFD884B01229A600023FA
:100D1000C7F81C310EE0854AD7F81C319B0007F557
:100D200090710B4453F8803C1360D7F81C310133A9
:100D3000C7F81C31D7F81C31032BECDD7B4B1A684C
:100D400007F108031B695340C7F8B030734BDB79D8
:100D5000002B0AD0714B5B79002B06D007F1A00263
:100D6000734B67210220FFF709FD0023C7F81831F4
:100D700082E00023C7F81C3175E0D7F8182113462C
:100D80005B0013445B001A46D7F81C31D118D7F822
:100D900018319B0007F59072134453F8802CD7F854
:100DA0001C319B0007F59070034453F8B83CB2FB2C
:100DB000F3F003FB00F3D31ADAB207F590730B4498
:100DC00003F8582CD7F818319B0007F5907213449C
:100DD00053F8802CD7F81C319B0007F590710B4419
:100DE00053F8B83CB2FBF3F2D7F818319B0007F583
:100DF00090710B4443F8802C484BDB79002B14D0C6
:100E0000464B5B79002B10D0D7F8182113465B00B6
:100E100013445B0003F10A02D7F81C31D01807F124
:100E2000C802444B6B21FFF7A9FC3C4BDB79002B3C
:100E300014D03A4B5B79002B10D0D7F81821134609
:100E40005B0013445B0003F10A02D7F81C31D01891
:100E500007F1A002374B6721FFF790FCD7F81C3150
:100E60000133C7F81C31D7F81C31052B85DDD7F8C5
:100E700018310133C7F81831D7F81831042B7FF730
:100E800078AF0023C7F81C310BE0D7F81C313A4685
:100E9000126813442A221A70D7F81C310133C7F89C
:100EA0001C31D7F81C311F2BEFDD3B461B6820336C
:100EB00000221A703B461B6803F10F023B461B6879
:100EC00010335F2119701B7813700023C7F81C3191
:100ED0001BE007F12802D7F81C3113441B7807F5F3
:100EE0009072134413F8583C1846FFF77FF90346F5
:100EF000194607F18002D7F81C3113440A461A70CC
:100F0000D7F81C310133C7F81C31D7F81C311D2B21
:100F1000DFDD0023C7F81C3120E000BF8C14002067
:100F20005C550408645504087855040800300240F4
:100F30007C5504088455040807F18002D7F81C3159
:100F40001344197807F1C802D7F81C3113440A4634
:100F50001A70D7F81C310133C7F81C31D7F81C318F
:100F60001D2BE9DD254BDB79002B0AD0234B5B7968
:100F7000002B06D007F1C802214B6B210320FFF79D
:100F8000FDFB0023C7F81C3119E0D7F81C211346DC
:100F90001B0113441A463B461B689818D7F81C21BE
:100FA00013461B019B1A07F1C80213440F2219466E
:100FB0003DF046FBD7F81C310133C7F81C31D7F898
:100FC0001C31012BE1DD00214FF480500CF0A0FD1D
:100FD0000A4BDB79002B07D0084B5B79002B03D041
:100FE0003B46186830F006FD044B0022DA710023FE
:100FF000184607F59077BD46B0BD00BF8C140020A1
:1010000088550408B0B5D0B004AF07F14803642296
:10101000002118463CF030FF714BBB6440F2134393
:10102000A7F84C306F4B3B6541F20703A7F85430EB
:101030006D4BBB656D4BFB6540F21343A7F8603009
:10104000684B7B6641F20703A7F86830664BFB6686
:10105000674B3B6740F21343A7F87430614BBB67A3
:1010600041F20703A7F87C305F4BC7F88030614B33
:10107000C7F8843040F21343A7F88830594BC7F8BB
:101080008C3041F20703A7F89030574BC7F89430E3
:10109000594B1B68C3F30B03C7F82431564B1B682D
:1010A0001B0C9BB2C7F8203107F10803534A1268A2
:1010B000114619800233120C1A700023C7F82C3124
:1010C0002BE0D7F82C214E4B13441B781A463B4695
:1010D0004C4918463CF01EFF3A4607F108031146FA
:1010E00018463CF06BFFD7F82C31032B03D0D7F810
:1010F0002C31072B0CD107F1080318463DF0E0F91D
:1011000003461A4607F1080313443F4A1068186063
:10111000D7F82C310133C7F82C31D7F82C310B2BF1
:10112000CFDD07F1E40007F108030093D7F8203181
:10113000D7F8242135493CF0EDFE0123C7F82831CA
:101140000023C7F82C3138E007F14801D7F82C21EB
:1011500013469B0013449B000B44C7F81C31D7F87F
:101160001C319B881C46D7F81C319B891D46D7F83B
:101170001C311B68D7F81C219268D7F81C1109692B
:1011800007F1AC000291019200932B4622462049C0
:101190003CF0C0FE07F1AC0207F1E403114618462B
:1011A0003CF0B2FFC7F82801D7F82831002B09D04E
:1011B000D7F82C310133C7F82C31D7F82C31042B58
:1011C000C2DD00E000BFD7F82831002B0CBF01239F
:1011D0000023DBB2184607F59877BD46B0BD00BFC7
:1011E000003A001D32385115373634360047003288
:1011F0000054002400410035002004E0CC550408D0
:10120000107AFF1F18550408D0550408D455040857
:10121000F055040880B584B000AF0346B9607A6029
:10122000FB73FB7B002B03D00D4B00229A710FE068
:1012300010210B483CF078FDFFF7E4FE03461A4608
:10124000074B5A71064ABB689360054A7B68D360B6
:10125000034B0022DA7100BF1037BD4680BD00BFCE
:101260008C14002080B582B000AF0346FB710F4B99
:101270005B79002B01D0002314E00C4B1B79002B71
:101280000AD00A4B1B68094A1279114601228A408A
:10129000934201D1012305E0FB79002B01D0FEF739
:1012A000CFFF002318460837BD4680BD8C140020B0
:1012B00080B400AF054B00221A71044B00221A6063
:1012C00000BFBD465DF8047B704700BF8C14002052
:1012D00080B58CB000AF114B03F5A64354331A7898
:1012E00042F001021A703B4600211846FEF7F0FF5B
:1012F00003461A460A490B483CF00CFE094830F0F8
:10130000C4F9064B03F5A64354331A786FF3000271
:101310001A7000BF3037BD4680BD00BF90B60020B8
:1013200020560408C812012090B597B000AF344B86
:1013300003F5A64354331A7842F001021A70314B78
:1013400000229A7107F1280300211846FEF7C0FF1A
:101350002C4B98682B4BDB68202219463DF070F926
:10136000284B9B68203300221A703A1D07F128038E
:1013700011461846FFF75AFA0446224BDA683B1D1D
:10138000114618463CF0C0FE03469C4221D10AF0AB
:10139000FBFA02461C4B83FB021313441911D317AB
:1013A000C91A0B465B015B1AD11ACBB20133DAB210
:1013B000144B1A71134B1B791A46012393401A469A
:1013C000104B1A60114830F0F5FA0E4B00229A715A
:1013D00007E00C4B00221A710A4B00221A60FEF73C
:1013E0002FFF0BF071FF064B03F5A64354331A7819
:1013F0006FF300021A7000BF5C37BD4690BD00BF9E
:1014000090B600208C140020430821842C56040838
:1014100080B596B000AF544B5B79002B00F08A800A
:10142000524B1B68D3ED107A9FED517AF4EE477A58
:10143000F1EE10FA10D04D4B1B68D3ED107AB7EED9
:10144000007AF4EE477AF1EE10FA0CBF0123002384
:10145000DBB21A46444BDA71444B1B68D3ED0F7A6A
:101460009FED437AF4EE477AF1EE10FA02D124F0C0
:101470005FF876E03D4B1B68D3ED0F7AFDEEE77A1F
:1014800017EE902A3B4B9A4202D024F097F868E07E
:10149000394B03F5A64354331A7842F001021A700F
:1014A000324B1B68D3ED027AB7EE007AF4EE477A3E
:1014B000F1EE10FA06D107F1240300211846FEF7D9
:1014C00007FF19E0294B1B68D3ED127AB7EE007ABB
:1014D000F4EE477AF1EE10FA06D107F12403012168
:1014E0001846FEF7F5FE07E01F4BDA6807F1240304
:1014F000114618463CF072FF3A4607F124031146A4
:101500001846FFF793F978657B6D002B09D107F139
:1015100024033A4619491A483CF0FCFC184830F0BC
:1015200049FA154B03F5A64354331A786FF30002BA
:101530001A7016E00D4B1B68D3ED0C7ABDEEE77AFE
:101540000A4B1B68D3ED0D7AFDEEE77A17EE903A61
:1015500017EE102A0B490C483CF0DCFC0A4830F02E
:10156000D7F95837BD4680BD8C1400203443002085
:10157000F02374C9AD06010090B600204856040857
:10158000C812012058560408BC11012090B484B040
:1015900000AF03460A46FB711346BB710023FB6094
:1015A000BB7903F003039B000F2202FA03F3FB60F5
:1015B0001649BB799B08DBB21846144ABB799B08D5
:1015C000DBB2023352F82320FB68DB431A40831C52
:1015D00041F823200D48BB799B08DBB21C460B4A1F
:1015E000BB799B08DBB2023352F82320F979BB792F
:1015F00003F003039B0001FA03F31A43A31C40F812
:10160000232000BF1037BD4690BC70470038014012
:1016100080B485B000AF78600023FB607B68DB6836
:101620004FF0FF325A607B68DB686FF080425A618E
:10163000FB7B43F08003FB737B7B43F008037B73EE
:101640007B68DB68FA689A6100BF1437BD465DF8B5
:10165000047B704780B586B000AF78600023FB74D0
:1016600000237B610023FB6003202FF079FA7B6865
:10167000DB681B69FB607B6901337B617B69184A0E
:10168000934201D9002326E0FB68C3F3C073DBB2A9
:10169000002BE9D000237B61FB6843F00103FB6072
:1016A0007B68DB68FA681A617B68DB681B69FB6032
:1016B0007B6901337B617B69094A934206D8FB68E9
:1016C000C3F30003DBB2012BEED000E000BF032028
:1016D0002FF046FAFB7C18461837BD4680BD00BF88
:1016E000400D030080B489B000AFF860B9601146C6
:1016F0001A460B46FB711346BB800023FB76FB6842
:10170000DB78002B22D100237B610023FB61BB88A7
:101710000333002B00DA03339B107B61FB79FA68FB
:1017200032339B0013449B683B610023FB6109E05B
:10173000BB681A683B691A60FB690133FB61BB68CF
:101740000433BB60FA697B699A42F1D3FB7E184689
:101750002437BD465DF8047B704780B489B000AF84
:10176000F860B9601346FB800023FB61FB880333FC
:10177000002B00DA03339B10BB61FB68D3F8D03039
:101780007B610023FB6109E07B691A68BB681A6012
:10179000FB690133FB61BB680433BB60FA69BB6959
:1017A0009A42F1D3BB6818462437BD465DF8047BE6
:1017B0007047000080B487B000AF78600B46FB70C4
:1017C00000233B610023FB737B680022DA707B6897
:1017D00001229A707B6840229A80FB78012B13D1FA
:1017E0004FF0A0433B617B680122DA727B680822DC
:1017F0001A707B6804225A707B684FF4A072DA80FA
:101800007B6802221A7211E0FB78002B0ED1454B47
:101810003B617B680022DA727B680C221A707B685D
:1018200006225A707B684FF4A062DA803A697B68BE
:10183000DA603B6903F500631A467B681A6100238E
:101840007B611CE07B695A013B69134403F510631B
:1018500019467A687B6904339B00134499607B695D
:101860005A013B69134403F5306319467A687B6972
:1018700014339B00134459607B6901337B617B689F
:101880005B781A467B699A42DCD83B6903F5806332
:101890001A467B685A613B6903F588631A467B6880
:1018A000C3F8CC2000237B610FE07B695A013B69C0
:1018B000134403F5A06319467A687B6922339B00C1
:1018C000134499607B6901337B617B681B781A46FE
:1018D0007B699A42E9D800237B610FE07B691A0398
:1018E0003B69134403F5805319467A687B693233A8
:1018F0009B00134499607B6901337B617B681B7893
:101900001A467B699A42E9D83B6903F560631A4637
:101910007B68C3F80C21FB7B18461C37BD465DF87D
:10192000047B70470000044080B586B000AF78604B
:101930000023FB7500233B610023FB600023BB6099
:101940007B681B7A012B42D17B68DB689B6BFB6059
:10195000BB7B6FF30003BB737B685B7A002B03D008
:10196000BB7B43F01003BB737B68DB68FA689A6348
:1019700000233B617B68DB68DB683B613B7C6FF38A
:1019800086133B74BB7C6FF38613BB74BB7C6FF315
:101990004103BB74BB7C6FF3C303BB747B68DB6820
:1019A0003A69DA607868FFF755FE7B68DB78012BCF
:1019B0003DD13B7A052262F344033B723B7A43F00C
:1019C00020033B727B68DB68BA689A602FE07B6813
:1019D000DB68DB683B613B7C43F040033B747B6826
:1019E000DB683A69DA607868FFF734FE0023FB6051
:1019F000BB7B43F00103BB73BB7B43F00403BB73AE
:101A0000BB7B43F00803BB73BB7B43F02003BB737A
:101A10007B685B7A002B03D0BB7B43F01003BB7366
:101A20007B68DB68FA689A6314202FF0BDF87B6846
:101A3000DB78012B10D17B68DB689B68BB603B7A4D
:101A4000052262F344033B723B7A43F020033B726E
:101A50007B68DB68BA689A60FB7D18461837BD461C
:101A600080BD80B485B000AF78600023FB73002395
:101A7000BB603B7A43F001033B727B68DB687A68AA
:101A8000D2689168BA680A439A60FB7B184614379B
:101A9000BD465DF8047B704780B485B000AF7860C8
:101AA0000023FB730023BB603B7A43F001033B72CE
:101AB0007B68DB687A68D2689168BA68D2430A406A
:101AC0009A60FB7B18461437BD465DF8047B70476F
:101AD00080B586B000AF786039600023FB740023C6
:101AE0007B610023FB60FB6843F02003FB603B68E5
:101AF000DBB203F01F03DAB2FB6862F38A13FB6008
:101B00007B68DB68FA681A617B68DB681B69FB60CD
:101B10007B6901337B617B69094A934206D8FB6884
:101B2000C3F34013DBB2012BEED000E000BF032073
:101B30002FF016F8FB7C18461837BD4680BD00BF55
:101B4000400D030080B586B000AF78600023FB74C1
:101B500000237B610023FB60FB6843F01003FB6004
:101B60007B68DB68FA681A617B68DB681B69FB606D
:101B70007B6901337B617B69094A934206D8FB6824
:101B8000C3F30013DBB2012BEED000E000BF032053
:101B90002EF0E6FFFB7C18461837BD4680BD00BF1F
:101BA000400D030080B584B000AF78600B46FB7039
:101BB0000023FB737B68DB68DB68BB60FB7A6FF339
:101BC0004513FB72FB7A6FF38613FB72FB78012BD4
:101BD00004D1FB7A43F02003FB7206E0FB78002B74
:101BE00003D1FB7A43F04003FB727B68DB68BA6881
:101BF000DA6032202EF0D8FFFB7B18461037BD4646
:101C000080BD80B483B000AF78607B68DB685B69BF
:101C100003F0010318460C37BD465DF8047B70479E
:101C200080B582B000AF78607868FFF7EAFF0346BE
:101C3000012B14BF01230023DBB218460837BD4631
:101C400080BD80B485B000AF78600023FB607B6806
:101C5000DB685B69FB607B68DB689B69FA68134043
:101C6000FB60FB6818461437BD465DF8047B70477F
:101C700080B485B000AF78600B46FB707B681B6951
:101C80001B68FB60FB7803F00303DAB23B7B62F373
:101C900001033B737B681B69FA681A6000BF143745
:101CA000BD465DF8047B704780B58CB000AF7860AE
:101CB000002387F82B3000237B6200233B62002344
:101CC000FB610023BB6100237B617B68D3F80C318F
:101CD00000221A607B681B691B683B6297F8213001
:101CE0006FF3C40387F821307B681B693A6A1A6076
:101CF0007B68DB7A012B33D103217868FFF7B8FFCB
:101D00007B68DB6880225A622023FB838023BB83AD
:101D10007B68DB68FA699A62BA8BFB8B13449BB2CF
:101D20003B8380237B837B68DB68BA69C3F804212B
:101D30003A8B7B8B13449BB23B8320237B837B6852
:101D4000DB68BA69C3F808213A8B7B8B13449BB2DA
:101D50003B8300237B837B68DB68BA69C3F80C2173
:101D600010217868FFF7B4FE7868FFF7EBFE7B6818
:101D70001B6900221A617B681B6900225A617B681B
:101D80001B694FF0FF329A617B681B690022DA61A0
:101D90000023FB623AE07A68FB6A04339B00134439
:101DA0009B681B687B6297F8273023F07F03DBB2C8
:101DB000002B0ED000237B6297F8273043F04003BE
:101DC00087F8273097F8273043F0080387F8273043
:101DD00001E000237B627A68FB6A04339B001344B2
:101DE0009B687A6A1A607A68FB6A04339B00134422
:101DF0009B6800221A617A68FB6A04339B001344D3
:101E00009B68FF229A60FB6A0133FB627B685B7808
:101E10001A46FB6A9A42BED80023FB6235E07A6814
:101E2000FB6A14339B0013445B681B68FB60FB7BFD
:101E300023F07F03DBB2002B0AD00023FB60FB7B87
:101E400043F04003FB73FB7B43F00803FB7301E0AB
:101E50000023FB607A68FB6A14339B0013445B68C1
:101E6000FA681A607A68FB6A14339B0013445B6853
:101E700000221A617A68FB6A14339B0013445B6882
:101E8000FF229A60FB6A0133FB627B685B781A462B
:101E9000FB6A9A42C3D800237B617B7D43F0010338
:101EA0007B757B681B697A68126911697A69D2430C
:101EB00011407A690A431A617B68DB78012B1BD1D8
:101EC00000233B613B7C43F001033B743B7C43F0CC
:101ED00002033B743B8A402262F38A033B82BB7C51
:101EE00043F00103BB747B8A402262F349037B8287
:101EF0007B681B693A691A63786800F006F897F8FE
:101F00002B3018463037BD4680BD80B584B000AF59
:101F100078600023FB730023BB607B68DB680022D2
:101F20009A617B68DB686FF080425A617868FFF7DE
:101F30006FFB7B68DB78002B03D13B7A43F0100307
:101F40003B727B7A43F008037B727B7A43F0100389
:101F50007B727B7A43F020037B72BB7A43F00403ED
:101F6000BB72BB7A43F00803BB723B7A43F00803B1
:101F70003B72BB7A43F01003BB72BB7A43F0200381
:101F8000BB727B68DB687A68D2689169BA68D243B1
:101F90001140BA680A439A61FB7B18461037BD4668
:101FA00080BD80B485B000AF78600023FB737B6890
:101FB0001B699B68BB603B7AC3F34103DBB2022B16
:101FC00009D0032B04D0012B02D00323FB7305E0BF
:101FD0000223FB7302E00123FB7300BFFB7B184667
:101FE0001437BD465DF8047B704780B487B000AFFE
:101FF00078600023FB750023BB607B681B699B68CE
:102000003B617B689B691B68FB603B7CC3F34103BE
:10201000DBB2022B04D0BB896FF30A03BB8105E05E
:10202000BB89032262F30A03BB8100BF7B689B6903
:10203000FA681A607B7A43F001037B727B681B6944
:102040007A6812695168BA68D2431140BA680A4383
:102050005A60FB7D18461C37BD465DF8047B70470F
:1020600080B487B000AF786039600023FB74002330
:10207000FB600023BB603B685B78012B0FD13B68A2
:102080001B787A6804339B0013449B687B613B6830
:102090001B781A46012393409BB23B810EE03B68BC
:1020A0001B787A6814339B0013445B687B613B6840
:1020B0001B781A46012393409BB27B817B691B6886
:1020C000FB607B7B23F07F03DBB2002B27D13B68D7
:1020D0009B689BB2C3F30A039AB2BB8962F30A03FB
:1020E000BB813B68DB7803F00303DAB2BB7B62F3AE
:1020F0008303BB733B68DB88DBB203F00F03DAB208
:10210000FB8962F38913FB81FB7B43F01003FB73B4
:102110007B7B43F080037B73FA687B691A607B6882
:102120001B697A681269D169BA680A43DA61FB7C73
:1021300018461C37BD465DF8047B704780B487B0F5
:1021400000AF786039600023FB740023FB6000233C
:10215000BB603B685B78012B0FD13B681B787A68CA
:1021600004339B0013449B687B613B681B781A46D1
:10217000012393409BB23B810EE03B681B787A6859
:1021800014339B0013445B687B613B681B781A46E1
:10219000012393409BB27B817B7B6FF3C7137B73DF
:1021A000FA687B691A607B681B697A681269D16971
:1021B000BA68D2430A40DA61FB7C18461C37BD4638
:1021C0005DF8047B704780B588B000AF78603960F7
:1021D0000023FB770023BB6100237B6100233B616D
:1021E0003B685B78012B40F0AB803B681B787A68DA
:1021F00004339B0013449B681B687B613B681B781E
:102200007A6804339B0013449B681B693B613B68FD
:102210005B69002B09D13B696FF312033B617B8A39
:10222000012262F3CC037B8222E03B685B69C3F34B
:1022300012023B6962F312033B613B685A693B68D7
:102240009B6813445A1E3B689B68B2FBF3F39BB236
:10225000C3F309039AB27B8A62F3CC037B823B68A7
:10226000DB78012B04D1FB7C012262F34613FB7463
:102270003B681B787A6804339B0013449B683A6977
:102280001A617B68DB78012B0AD13B681B787A687E
:1022900004339B0013449B683A6812695A6115E045
:1022A0003B68DB78012B11D03B685B69002B0DD0BC
:1022B0003B681B781A4601239340BB617B681B690E
:1022C0007A681269516BBA690A435A633B68DB78D2
:1022D000012B14D17B681B699B68FB60FB68C3F30F
:1022E0000D239BB203F00103002B04D1FB7D43F0CF
:1022F0002003FB7503E0FB7D43F01003FB75FB7DC2
:1023000043F00403FB75FB7D43F08003FB753B68E2
:102310001B787A6804339B0013449B687A691A60BF
:102320003B68DB78012B40F089803B68D9683B68CB
:102330001A783B685B699BB27868FFF7D3F97DE058
:102340003B681B787A6814339B0013445B681B68F6
:102350007B613B681B787A6814339B0013445B688D
:102360001B693B613B685B69002B0DD13B689B6837
:10237000C3F312023B6962F312033B617B8A0122C1
:1023800062F3CC037B8220E03B685A693B689B6820
:1023900013445A1E3B689B68B2FBF3F39BB2C3F332
:1023A00009039AB27B8A62F3CC037B827B8AC3F3F4
:1023B000C9039BB21A463B689B6803FB02F3C3F355
:1023C00012023B6962F312033B613B681B787A6837
:1023D00014339B0013445B683A691A617B68DB78AD
:1023E000012B09D13B681B787A6814339B00134496
:1023F0005B683A6812695A613B68DB78012B0CD143
:102400003B685B79002B04D0FB7D43F02003FB7518
:1024100003E0FB7D43F01003FB75FB7D43F00403F9
:10242000FB75FB7D43F08003FB753B681B787A6886
:1024300014339B0013445B687A691A60FB7F18466B
:102440002037BD4680BD80B489B000AF7860396068
:102450000023FB770023BB6100233B610023BB60AB
:102460003B685B78012B70D17B689B697B617B69E2
:102470001B683B617B691B69BB603B685B69002B28
:1024800009D13B7A6FF306033B72BB7A012262F3F8
:10249000C403BB7223E03B685A693B689B689A425D
:1024A0000ED93B689A683B685A613B689B68DBB20F
:1024B00003F07F03DAB23B7A62F306033B7209E072
:1024C0003B685B69DBB203F07F03DAB23B7A62F30D
:1024D00006033B72BB7A012262F3C403BB72BA6883
:1024E0007B691A617B68DB78012B09D13B681B781B
:1024F0007A6804339B0013449B683A6812695A61F6
:10250000FB7C43F00403FB74FB7C43F08003FB740F
:102510003A697B691A607B68DB78002B76D13B686F
:102520005B69002B72D03B681B781A4601239340ED
:102530001A46BB691343BB617B681B697A681269E1
:10254000516BBA690A435A6360E03B681B787A684A
:1025500014339B0013445B681B683B613B681B782A
:102560007A6814339B0013445B681B69BB603B684B
:102570005B69002B0FD13B689B68DBB203F07F03E4
:10258000DAB23B7A62F306033B72BB7A012262F352
:10259000C403BB7212E03B689A683B685A613B68AF
:1025A0009B68DBB203F07F03DAB23B7A62F3060387
:1025B0003B72BB7A012262F3C403BB723B681B7897
:1025C0007A6814339B0013445B68BA681A617B68AD
:1025D000DB78012B09D13B681B787A6814339B00A8
:1025E00013445B683A6812695A61FB7C43F0040348
:1025F000FB74FB7C43F08003FB743B681B787A68B8
:1026000014339B0013445B683A691A60FB7F1846D9
:102610002437BD465DF8047B704780B487B000AFB7
:10262000786039600023FB750023FB603B685B78B2
:10263000012B1CD13B681B787A6804339B00134440
:102640009B683B613B691B68FB60FB7B23F07F035E
:10265000DBB2002B03D0FB7B43F04003FB73BB7B5F
:1026600043F02003BB73FA683B691A6011E03B68D2
:102670001B787A6814339B0013445B683B613B69A9
:102680001B68FB60BB7B43F02003BB73FA683B69AC
:102690001A60FB7D18461C37BD465DF8047B704709
:1026A00080B487B000AF786039600023FB740023EA
:1026B000FB603B685B78012B08D13B681B787A682C
:1026C00004339B0013449B687B6107E03B681B78E5
:1026D0007A6814339B0013445B687B617B691B68D9
:1026E000FB60BB7B6FF34513BB733B68DB78032B4D
:1026F00003D03B68DB78022B03D1FB7B43F0100354
:10270000FB73FA687B691A60FB7C18461C37BD4670
:102710005DF8047B704780B485B000AF78607B685B
:102720001B699B69FB607B681B69DB69FA68134066
:10273000FB60FB681B0C18461437BD465DF8047B34
:10274000704780B485B000AF78600B46FB70FB78B3
:102750007A6814339B0013445B689B68FB607B685A
:102760001B695B69FA681340FB60FB681846143705
:10277000BD465DF8047B704780B485B000AF7860DB
:102780007B681B699B69FB607B681B69DB69FA6876
:102790001340FB60FB689BB218461437BD465DF8DA
:1027A000047B704780B487B000AF786000233B6142
:1027B000FB7C43F0C003FB74BB7C012262F3C403C7
:1027C000BB743B7C182262F306033B747B685B6D31
:1027D0003A691A617B68DB78012B16D10023FB6014
:1027E0007B685B6D7A6802F2CC525A617B685B6DE4
:1027F0001B68FB60FB7B43F08003FB734FF080237F
:10280000FB607B685B6DFA681A6000BF1C37BD46D1
:102810005DF8047B7047000080B400AF034B0022DA
:102820001A7000BFBD465DF8047B70472812002077
:1028300080B483B000AF0346FB71044B00221A70D2
:1028400000BF0C37BD465DF8047B7047281200209E
:1028500080B400AF034B01221A7000BFBD465DF883
:10286000047B70472812002080B400AF034B002285
:102870001A7000BFBD465DF8047B70472812002027
:1028800080B400AF034B00221A7000BFBD465DF854
:10289000047B70472812002080B400AF034B002255
:1028A0001A7000BFBD465DF8047B704728120020F7
:1028B00080B400AF034B00221A7000BFBD465DF824
:1028C000047B70472812002080B400AF034B1B78B4
:1028D0001846BD465DF8047B704700BF28120020F3
:1028E00080B483B000AF0346FB71094997F9073004
:1028F0005B09FA7902F01F02012000FA02F241F8A6
:10290000232000BF0C37BD465DF8047B704700BF35
:1029100000E100E080B584B004AF012140F2FF1077
:102920000BF0B6F8002140F2FF100BF051F901F066
:10293000ABFE0323029344F21003019300230093A0
:1029400001230A4A04210A4809F037FF03230293AE
:102950004FF0FF330193002300930023054A052124
:10296000054809F02AFF00BFBD4680BD885604080F
:1029700014400020905604087C1D002080B586B0CD
:1029800000AF78604FF4802001F014F97B68BB60E1
:102990000023BB810023FB8100233B820023BB82F9
:1029A0000C237B8207F1080319460A4800F0C6FF92
:1029B0000121084801F07CF80121272001F05FF98E
:1029C000012240F22551034801F092F800BF183768
:1029D000BD4680BD0048004080B586B000AF78603D
:1029E0004FF4002001F0E6F87B68BB600023BB8158
:1029F0000023FB8100233B820023BB820C237B82CC
:102A000007F1080319460A4800F098FF0121084819
:102A100001F04EF80121342001F031F9012240F299
:102A20002551034801F064F800BF1837BD4680BD4A
:102A3000004C004080B586B000AF7860202001F0E7
:102A4000DFF87B68BB600023BB810023FB81002390
:102A50003B820023BB820C237B8207F108031946CB
:102A60000A4800F06BFF0121084801F021F801211C
:102A7000472001F004F9012240F22551034801F0FA
:102A800037F800BF1837BD4680BD00BF00140140B5
:102A900080B582B000AF78607868FFF76FFF786824
:102AA000FFF79AFF7868FFF7C5FF00BF0837BD46FC
:102AB00080BD000080B58EB000AF78607B683B4A77
:102AC000934202D14FF0007301E04FF0806318464B
:102AD00001F070F807F12C03184601F06FFB00239A
:102AE00087F83230012387F83330002387F83430F9
:102AF000002387F83530002387F83630012387F824
:102B00003730002387F82E30002387F82F30022338
:102B100087F83030012387F831303823BB850E2306
:102B2000BB8507F12C031946786801F0B9F97B6879
:102B30001E4A93421BD1002387F82730012387F8D0
:102B400028300023BB830423FB8300233B8404231E
:102B50007B840023BB84012387F82930002387F876
:102B6000263007F11C03184601F06CFA1AE07B6866
:102B70000F4A934216D10023FB7501233B760023B5
:102B8000BB810423FB8100233B8204237B8200233F
:102B9000BB8201237B760E23BB7507F10C0318461D
:102BA00001F050FA00BF3837BD4680BD00640040D8
:102BB0000068004080B586B000AF78600B46FB70BF
:102BC0007B68D3F85033BB60BB68744A934206D12C
:102BD00002237B6101233B611923FB6091E0BB6809
:102BE000B3F1804F06D101237B6101233B611C239C
:102BF000FB6086E0BB686A4A934206D101237B6191
:102C000002233B611D23FB607BE0BB68654A934266
:102C100006D101237B6104233B611E23FB6070E02E
:102C2000BB68614A934206D101237B6108233B6163
:102C30003223FB6065E0BB685C4A934206D1012306
:102C40007B6110233B613623FB605AE0BB68584A26
:102C5000934206D101237B6120233B613723FB6034
:102C60004FE0BB68534A934206D102237B610223A3
:102C70003B612C23FB6044E0BB684F4A934207D181
:102C800002237B614FF480333B611823FB6038E003
:102C9000BB684A4A934207D102237B614FF4003359
:102CA0003B611923FB602CE0BB68454A934207D186
:102CB00002237B614FF480233B611A23FB6020E0F9
:102CC000BB68404A934206D101237B6140233B61AC
:102CD0002B23FB6015E0BB683B4A934206D10123DE
:102CE0007B6180233B612C23FB600AE0BB68374A91
:102CF00093424ED101237B614FF480733B612D23BE
:102D0000FB60FB68DBB20821184600F09FFF002241
:102D10000121B86835F0DAFF7B69012B07D13869EA
:102D200000F048FF7B682A4AC3F8542306E038695C
:102D300000F066FF7B68274AC3F85423264B4FF602
:102D4000FF721A80244B00225A80234B4FF6FF72E9
:102D50005A60214B00221A811F4B00229A721E4991
:102D6000B86835F0EDFD0121B86835F055FEFB7807
:102D7000002B0FD0FB685BB21846FFF7B1FD0121B5
:102D8000B86835F0F1FF01220121B86835F09EFFE7
:102D900000E000BF1837BD4680BD00BF0000014005
:102DA0000004004000080040000C004000100040FB
:102DB0000014004000040140004001400044014074
:102DC0000048014000180040001C00400020004066
:102DD000A037A04CA037204D941A002080B500AF3A
:102DE000012000F00DFF0721192000F02FFF002225
:102DF0000121154835F06AFF144B4FF6FF721A8017
:102E0000124B00225A80114B4FF6FF725A600F4B43
:102E100000221A810D4B00229A720C490A4835F0A3
:102E20008FFD0121084835F0F7FD0121064835F0F6
:102E30009BFF01220121044835F048FF1920FFF7CC
:102E40004FFD00BF80BD00BF00000140941A00206C
:102E500080B500AF022000F0ADFE0D4B53221A806A
:102E60000B4B00225A800A4B4FF6FF725A60084BF8
:102E700000221A81064B00229A720549054835F056
:102E80005FFD0121034835F007FE00BF80BD00BF94
:102E9000941A00200004004080B588B000AF3A4B7F
:102EA00003F5884368331B78002B03D1082000F01A
:102EB00067FE65E0082000F07DFE00220121334816
:102EC00035F004FF304B03F5884378331B6807EE79
:102ED000903AB8EEE77ADFED2E6AC6EE877AB7EE63
:102EE000007A77EE877AFCEEE77A17EE903AFB618C
:102EF000FB691B0CBB61BB690133FA69B2FBF3F3DD
:102F0000013B7B61234B00225A80BB699AB2214B63
:102F10001A80204A7B6953601E4B00221A811D4B88
:102F200000229A721B49194835F00AFD3B461846A3
:102F300035F05AFE60233B8001237B800023BB6079
:102F4000114B03F5884369331B78002B01D1022311
:102F500000E00023BB813B4619460C4835F0BCFD20
:102F600008210A4835F062FE0121084835F074FD59
:102F70000121064835F084FE0121044835F08CFD1E
:102F800000BF2037BD4680BDB0590020000C004076
:102F9000A037A04C941A002080B586B000AF2C4B0F
:102FA00003F58D4304331B68002B4DD0294835F0C1
:102FB00041FF274B03F58D4304331B687B610021E0
:102FC0007869FFF7F7FD244B00225A80224B4FF619
:102FD000FF721A80204B4FF6FF725A601E4B002280
:102FE0001A811D4B00229A727B69D3F850331A491B
:102FF000184635F0A5FC3B46184635F0F5FD602334
:103000003B8001237B800023BB600023BB817B6965
:10301000D3F850333A461146184635F05DFD7B69CA
:10302000D3F850330821184635F000FE7B69D3F8F9
:1030300050330121184635F00FFD7B69D3F850332A
:103040000121184635F01CFE00BF1837BD4680BD73
:10305000B0590020033E0300941A002080B582B0CE
:1030600000AF0F4B03F58D4304331B68002B13D0C7
:103070000B4B03F58D4304331B687B60012178689B
:10308000FFF798FD7B68D3F83033184635F0D2FE51
:103090007B68002283F8512200BF0837BD4680BDFF
:1030A000B059002080B500AF102000F083FD0A2148
:1030B000362000F0CBFD00220121154835F006FE38
:1030C000144B4FF6FF721A80124B00225A80114B9C
:1030D0004FF6FF725A600F4B00221A810D4B0022EF
:1030E0009A720C490A4835F02BFC3620FFF7F8FBA2
:1030F0000121074835F090FC0121054835F034FEE8
:1031000001220121024835F0E1FD00BF80BD00BF72
:1031100000100040941A002080B500AF202000F07D
:1031200049FD0921372000F091FD002201211648B8
:1031300035F0CCFD154B42F2CF021A80134B002222
:103140005A80124B63225A60104B00221A810F4B97
:1031500000229A720D490C4835F0F2FB3720FFF738
:10316000BFFB0121084835F057FC0121064835F026
:10317000FBFD01220121044835F0A8FD0121024890
:1031800035F08AFC00BF80BD00140040941A002076
:1031900080B500AF124B03F5884364331B68002BE6
:1031A00019D000209FED0F0A32F044FF0C4B03F5BD
:1031B000884364331B680121184633F09BFC084B9D
:1031C00003F5884374331B78002B01D0FFF764FEAE
:1031D000054B64221A6000F0C9F800BF80BD00BF33
:1031E000B059002000000000E012002090B583B02C
:1031F00000AF474B03F58C4304334FF07E521A6007
:1032000000237B600CE07B68D9B2414A7B681344A1
:1032100003F58A4304330A461A707B6801337B60E6
:103220007B68FF2BEFDD3A4B03F5884368331B784F
:10323000002B67D0364B03F5884364331B68002BA3
:1032400060D0334B03F5884364331B681B78184602
:1032500032F079FC00233B6026E02D4B03F58843D8
:1032600064331B681B78184614F078FF03461A462F
:1032700001239340DB4327493A6802F69222D200A9
:103280000A44D2E900124FEAE37403EA010304EAB4
:10329000020420493A6802F69222D2000A44C2E9A6
:1032A00000343B6801333B603B683F2BD5DD184B56
:1032B00003F5884364331868154B03F5884370336E
:1032C0001B689BB20322002133F0E6FD104B03F58F
:1032D000884364331B680121184633F036FC0C4BDD
:1032E00003F5884374331B78002B05D0FFF7D4FD1A
:1032F0004FF0FF3035F09EFD00209FED070A32F0C1
:1033000099FE01E0FFF744FF00BF0C37BD4690BDBA
:10331000B059002090B600200000000080B400AF3B
:10332000094B03F58C4320334FF000021A60064B23
:1033300003F58C4324334FF4FA621A6000BFBD4694
:103340005DF8047B704700BFB059002080B400AF27
:10335000054B03F58C431C334FF082421A6000BFCB
:10336000BD465DF8047B7047B059002080B400AFC3
:103370004E4B03F588436033FE221A704B4B03F526
:103380008843643300221A60484B03F5884368334E
:1033900000221A70454B03F58843693301221A70E5
:1033A000424B03F588436C3300221A603F4B03F510
:1033B0008843703300221A603C4B03F58843743312
:1033C00000221A70394B03F5884378334FF4FA62C0
:1033D0001A60364B03F588437C334FF000021A60C5
:1033E000324B03F589434FF000021A602F4B03F56F
:1033F0008C4318332E4A1A602C4B03F589430C3347
:1034000001221A60294B03F58943143300221A6004
:10341000264B03F58943183300221A60234B03F52A
:1034200089431C3300221A60204B03F58943203363
:1034300000221A601D4B03F5894348334FF0000208
:103440001A601A4B03F589434C334FF000021A609F
:10345000164B03F5894350334FF000021A60134BAB
:1034600003F5894354334FF000021A600F4B03F504
:10347000894358334FF000021A600C4B03F58C431C
:10348000103300221A70094B03F58C4308334FF0B8
:1034900000021A60054B03F58C43143300221A70A6
:1034A00000BFBD465DF8047B704700BFB0590020E7
:1034B000000C004080B483B000AF0346FB71B94BF1
:1034C00003F58C436D33FA791A70FB79013B492B74
:1034D00000F2558101A252F823F000BF0536000822
:1034E00013360008213600082F3600083D36000844
:1034F0004B36000859360008673600087F37000849
:10350000753600087F3700087F3700087F370008CE
:103510007F3700087F3700087F3700087F370008B3
:103520007F3700087F3700087F3700087F370008A3
:1035300083360008D73600082B3700087F3700088D
:103540007F3700087F3700087F3700087F37000883
:103550007F3700087F37000891360008E5360008FD
:10356000393700087F3700087F3700087F370008A9
:103570007F3700087F3700087F3700087F37000853
:103580009F360008F3360008473700087F370008E9
:103590007F3700087F3700087F3700087F37000833
:1035A0007F3700087F370008AD3600080137000874
:1035B000553700087F3700087F3700087F3700083D
:1035C0007F3700087F3700087F3700087F37000803
:1035D000BB3600080F370008633700087F37000844
:1035E0007F3700087F3700087F3700087F370008E3
:1035F0007F3700087F370008C93600081D370008EC
:1036000071370008674B03F58C437033664A1A60C4
:10361000C2E0644B03F58C437033644A1A60BBE02C
:10362000604B03F58C437033614A1A60B4E05D4B24
:1036300003F58C4370335F4A1A60ADE0594B03F5D4
:103640008C4370335C4A1A60A6E0564B03F58C43FA
:1036500070335A4A1A609FE0524B03F58C43703323
:10366000574A1A6098E04F4B03F58C437033554A24
:103670001A6091E04B4B03F58C437033524A1A6049
:103680008AE0484B03F58C437033504A1A6083E05C
:10369000444B03F58C4370334D4A1A607CE0414B38
:1036A00003F58C4370334B4A1A6075E03D4B03F5CC
:1036B0008C437033484A1A606EE03A4B03F58C43F2
:1036C0007033464A1A6067E0364B03F58C4370331B
:1036D000434A1A6060E0334B03F58C437033414A30
:1036E0001A6059E02F4B03F58C4370333E4A1A6041
:1036F00052E02C4B03F58C4370333C4A1A604BE08C
:10370000284B03F58C437033394A1A6044E0254B4B
:1037100003F58C437033374A1A603DE0214B03F5C3
:103720008C437033344A1A6036E01E4B03F58C43E9
:103730007033324A1A602FE01A4B03F58C43703312
:103740002F4A1A6028E0174B03F58C4370332D4A3B
:103750001A6021E0134B03F58C4370332A4A1A6038
:103760001AE0104B03F58C437033284A1A6013E0BB
:103770000C4B03F58C437033254A1A600CE0094B5F
:1037800003F58C436D3300221A70064B03F58C430E
:10379000703300221A6000BF00BF0C37BD465DF8D1
:1037A000047B7047B059002024A0002028A00020EE
:1037B0002CA00020E0120020DE120020CC120020FD
:1037C000D5120020D6120020E812002000A300200D
:1037D00060A60020C0A9002020AD002080B00020FD
:1037E000E0B3002030A3002090A60020F0A9002024
:1037F00050AD0020B0B0002010B4002060A3002025
:10380000C0A6002020AA002080AD0020E0B000204B
:1038100040B4002080B582B000AF44F298614448C3
:103820003AF082FA0023FB710AE0FB79404A134424
:1038300003F581430833FF221A70FB790133FB71D2
:10384000FB79032BF1D90023FB710AE0FB79384A9D
:10385000134403F581430C33FF221A70FB790133C3
:10386000FB71FB79072BF1D9314B03F58C436C339A
:1038700000221A700020FFF71DFE2D4B03F58D432B
:1038800000221A70FFF762FDFFF748FDFFF76EFD9B
:10389000274B03F58C434033DA78012161F3C402EE
:1038A000DA70234B03F58C4340331A684A2161F3E5
:1038B000D1221A601E4B03F58C4340339A7842F0B4
:1038C00004029A701A4B03F58C4340331A886FF345
:1038D000CA021A803121174813F032FC144B03F549
:1038E0008C433033DA78012161F3C402DA70104B73
:1038F00003F58C4330331A684B2161F3D1221A60EF
:103900000B4B03F58C4330339A7842F004029A70E3
:10391000074B03F58C4330331A886FF3CA021A80C1
:103920003121054813F00CFC00BF0837BD4680BDAF
:10393000B0590020F09F0020E09F002080B58AB0A1
:1039400000AF7860396000237B6200233B62002374
:10395000FB610023BB617B681B8A9BB27B627B6A35
:1039600023F440537B623B68DB881A467B6A13432F
:103970007B627B6A9AB27B681A827B689B899BB266
:103980007B627B6A23F4B05323F00C037B623B68B9
:103990009A883B681B8913439AB23B685B8913433F
:1039A0009BB21A467B6A13437B627B6A9AB27B683E
:1039B0009A817B689B8A9BB27B627B6A23F440730B
:1039C0007B623B689B891A467B6A13437B627B6AF6
:1039D0009AB27B689A8207F10803184609F0B0FF93
:1039E0007B68304A934203D07B682F4A934202D1CE
:1039F0007B693B6201E03B693B627B689B899BB2D0
:103A00001BB2002B0CDA3A6A13469B0013449A004F
:103A10001A443B681B685B00B2FBF3F3FB610BE0ED
:103A20003A6A13469B0013449A001A443B681B6889
:103A30009B00B2FBF3F3FB61FB691C4AA2FB03236F
:103A40005B091B017B627B6A1B09642202FB03F397
:103A5000FA69D31ABB617B689B899BB21BB2002BAE
:103A60000CDABB69DB003233104AA2FB03235B098B
:103A700003F007037A6A13437B620BE0BB691B0107
:103A800032330A4AA2FB03235B0903F00F037A6A6D
:103A900013437B627B6A9AB27B681A8100BF283726
:103AA000BD4680BD00100140001401401F85EB5150
:103AB00080B483B000AF78600B46FB70FB78002BBE
:103AC00008D07B689B899BB243F400539AB27B6811
:103AD0009A8107E07B689B899BB223F400539AB2DA
:103AE0007B689A8100BF0C37BD465DF8047B704748
:103AF00080B487B000AF78600B467B8013467B7044
:103B000000233B610023FB600023BB6000237B613B
:103B10007B687B617B88DBB25B09DBB23B617B88C6
:103B200003F01F03FB600122FB6802FA03F3BB6092
:103B30003B69012B03D17B690C337B6109E03B6955
:103B4000022B03D17B6910337B6102E07B69143364
:103B50007B617B78002B06D07B697A691168BA6833
:103B60000A431A6006E07B697A691168BA68D24331
:103B70000A401A6000BF1C37BD465DF8047B7047E1
:103B800080B483B000AF78600949094B1A6C7B6838
:103B9000DB4313400B640649054B1A6A7B681343E9
:103BA0000B6200BF0C37BD465DF8047B704700BF59
:103BB0000038024080B483B000AF78600F490F4BEB
:103BC0001A6C7B68DB4313400B640C490B4B1A6A7D
:103BD0007B6813430B620949084B1A6C7B681343DB
:103BE0000B640649054B1A6A7B68DB4313400B6282
:103BF00000BF0C37BD465DF8047B704700380240BB
:103C000080B483B000AF78600F490F4B5A6C7B686B
:103C1000DB4313404B640C490B4B5A6A7B681343DC
:103C20004B620949084B5A6C7B6813434B64064945
:103C3000054B5A6A7B68DB4313404B6200BF0C376D
:103C4000BD465DF8047B70470038024080B584B003
:103C500000AF03460A46FB711346BB71FB793B7309
:103C6000BB797B730023BB730023FB7307F10C0349
:103C7000184635F0BFF900BF1037BD4680BD80B58E
:103C800084B000AF03460A46FB711346BB71FB7953
:103C90003B73BB797B730023BB730123FB7307F179
:103CA0000C03184635F0A6F900BF1037BD4680BD9D
:103CB00080B483B000AF786039607A683B689A421C
:103CC00001DA7B6800E03B6818460C37BD465DF8BA
:103CD000047B704780B483B000AF786039607A6845
:103CE0003B689A4201DD7B6800E03B6818460C3770
:103CF000BD465DF8047B704780B485B000AFF860C6
:103D0000B9607A60FA68BB689A4201DCBB6806E079
:103D1000FA687B689A4201DB7B6800E0FB68184622
:103D20001437BD465DF8047B704780B485B000AFA2
:103D300087ED030AC7ED020A87ED011A97ED037AB2
:103D4000D7ED027AB4EEE77AF1EE10FA01D8BB684B
:103D50000BE097ED037AD7ED017AB4EEE77AF1EE56
:103D600010FA01DB7B6800E0FB6807EE903AB0EEEA
:103D7000670A1437BD465DF8047B704780B483B092
:103D800000AFEFF310833B603B687B607B68002BE8
:103D900000D172B67B6818460C37BD465DF8047BCF
:103DA000704780B483B000AF78607B68002B00D18F
:103DB00062B600BF0C37BD465DF8047B704780B427
:103DC00083B000AF87ED010AF1EEC07A00BFB0EE1C
:103DD000670A0C37BD465DF8047B704780B483B03A
:103DE00000AF78600B46FB70FB78072B3AD801A236
:103DF00052F823F0153E00081F3E0008293E000837
:103E0000333E00083D3E0008473E0008513E000892
:103E10005B3E00087B68194A1068186027E07B68E1
:103E2000174A1068186022E07B68164A106818600C
:103E30001DE07B68144A1068186018E07B68134A1C
:103E40001068186013E07B68114A106818600EE073
:103E50007B68104A1068186009E07B680E4A106899
:103E6000186004E07B680D4A1068186000BF7B682A
:103E700018460C37BD465DF8047B7047945604081D
:103E8000985604089C560408A0560408A456040832
:103E9000A8560408AC560408B0560408B4560408E2
:103EA00080B485B000AF786039600023FB730023D5
:103EB000BB607B681B6823F002027B681A607B682A
:103EC0001B6843F001027B681A6002E0BB680133A3
:103ED000BB607B685B6803F00103012B04D0BB6807
:103EE0004FF6FF729342F1D17B685B6803F00103E8
:103EF000012B02D00023FB739CE03B689B79012BD4
:103F000006D17B681B6843F080027B681A6005E07D
:103F10007B681B6823F080027B681A603B68DB7952
:103F2000012B06D17B681B6843F040027B681A6056
:103F300005E07B681B6823F040027B681A603B68E1
:103F40001B7A012B06D17B681B6843F020027B683B
:103F50001A6005E07B681B6823F020027B681A600A
:103F60003B685B7A012B06D17B681B6843F010022B
:103F70007B681A6005E07B681B6823F010027B6891
:103F80001A603B689B7A012B06D17B681B6843F063
:103F900008027B681A6005E07B681B6823F0080252
:103FA0007B681A603B68DB7A012B06D17B681B6853
:103FB00043F004027B681A6005E07B681B6823F00D
:103FC00004027B681A603B689B789A073B68DB7841
:103FD0001B061A433B681B791B041A433B685B7939
:103FE0001B051A433B681B88013B1A437B68DA6157
:103FF0007B681B6823F001027B681A600023BB60AA
:1040000002E0BB680133BB607B685B6803F00103BF
:10401000012B04D1BB684FF6FF729342F1D17B684C
:104020005B6803F00103012B02D10023FB7301E065
:104030000123FB73FB7B18461437BD465DF8047BF8
:104040007047000080B485B000AF78600023FB604B
:104050007B689B7A1A4601239340FB60564A564B75
:10406000D3F8003243F00103C2F800325249524BF8
:10407000D3F81C22FB68DB431340C1F81C327B6879
:104080001B7B002B25D14C494B4BD3F80C22FB68F2
:10409000DB431340C1F80C3247497B689B7A1846D2
:1040A0007B68DB881B047A6852881A4300F1480356
:1040B00041F8332040497B689B7A18467B689B888F
:1040C0001B047A6812881A4300F14803DB000B4492
:1040D0005A607B681B7B012B24D13749364BD3F8C0
:1040E0000C22FB681343C1F80C3233497B689B7A7E
:1040F00018467B681B881B047A6852881A4300F1B3
:10410000480341F833202C497B689B7A18467B682A
:104110009B881B047A68D2881A4300F14803DB00AD
:104120000B445A607B68DB7A002B09D12249224B71
:10413000D3F80422FB68DB431340C1F8043207E0E4
:104140001D491D4BD3F80422FB681343C1F8043208
:104150007B681B89002B08D11749174BD3F8142211
:10416000FB68DB431340C1F814327B681B89012BC9
:1041700007D11149104BD3F81422FB681343C1F83F
:1041800014327B685B7B012B07D10B490A4BD3F8B8
:104190001C22FB681343C1F81C32074A064BD3F8B4
:1041A000003223F00103C2F8003200BF1437BD46CD
:1041B0005DF8047B704700BF0064004080B483B0AA
:1041C00000AF78607B6800229A717B680022DA7108
:1041D0007B6800221A727B6800225A727B68002278
:1041E0009A727B680022DA727B6800229A707B6880
:1041F0000022DA707B6803221A717B6802225A71EE
:104200007B6801221A8000BF0C37BD465DF8047B35
:104210007047000080B500AF024801F07FFE00BF8C
:1042200080BD00BFB856040880B400AF044B4AF606
:10423000AA221A6000BFBD465DF8047B704700BF2C
:104240000030004080B584B000AFF8607A603B6019
:104250000B46FB72F8682CF065FCF86800F01DF85E
:10426000FB683A68C3F8E425FB68BA69C3F8E82537
:10427000FB687A68C3F8EC25FB7A1946F86831F0D8
:10428000A9F9FB68D3F8E8351B689847F8682CF063
:104290005AFC00BF1037BD4680BD80B483B000AF6C
:1042A0007860002318460C37BD465DF8047B7047E4
:1042B00080B584B000AF786007F1080319467868CC
:1042C0002DF06AF83B7A03F01F03012B0AD0022B72
:1042D0000FD0002B14D107F10803194678682CF091
:1042E00085FC16E007F10803194678682CF0CEFC2F
:1042F0000FE007F10803194678682CF0FBFC08E092
:104300003B7A23F07F03DBB21946786831F0F7FA85
:1043100000BF002318461037BD4680BD80B584B06D
:1043200000AF78600B46FB70FB78002B44D17B68B4
:1043300003F55D73FB607B6893F81131032B4ED15D
:10434000FB68DA69FB689B689A4220D9FB68DA69E6
:10435000FB689B68D21AFB68DA617B68DB78012B0B
:1043600006D1FB68DA68FB689B681A44FB68DA6070
:10437000FB68D968FB689A68FB68DB69934228BFD1
:1043800013469BB21A46786834F096FA27E07B68A9
:10439000D3F8E4351B69002B0AD07B6893F81231FF
:1043A000032B05D17B68D3F8E4351B6978689847FF
:1043B000786834F095FA12E07B68D3F8E4359B69AD
:1043C000002B0CD07B6893F81231032B07D17B684C
:1043D000D3F8E4359B69FA7811467868984700234A
:1043E00018461037BD4680BD80B584B000AF7860F8
:1043F0000B46FB70FB78002B6BD17B6803F58E734B
:10440000FB607B6893F81131022B55D1FB68DA69A8
:10441000FB689B689A421BD9FB68DA69FB689B685A
:10442000D21AFB68DA617B68DB78012B06D1FB6866
:10443000DA68FB689B681A44FB68DA60FB68D96835
:10444000FB68DB699BB21A46786834F001FA33E006
:10445000FB681B6AFA689268B3FBF2F102FB01F297
:104460009B1A002B14D1FB681A6AFB689B689A425E
:104470000ED3FB681A6AFB685B6A9A4208D2002274
:104480000021786834F0E4F9FB6800225A6213E0F6
:104490007B68D3F8E435DB68002B0AD07B6893F89F
:1044A0001231032B05D17B68D3F8E435DB687868DB
:1044B0009847786834F02CFA7B6893F81631012B12
:1044C0001AD1786800F01EF87B68002283F8162164
:1044D00012E07B68D3F8E4355B69002B0CD07B6875
:1044E00093F81231032B07D17B68D3F8E4355B696D
:1044F000FA78114678689847002318461037BD4669
:1045000080BD000080B483B000AF78607B681B6919
:10451000044A12685A60002318460C37BD465DF8FD
:10452000047B7047A01A002080B582B000AF78608D
:10453000002340220021786831F0CFF80023402288
:104540008021786831F0C9F87B68012283F8122154
:104550007B68D3F8E8355B687A68927810469847AC
:10456000002318460837BD4680BD80B582B000AF35
:1045700078607B68D3F8E8351B6998477B6893F8C7
:1045800013217B6883F812217B68032283F81221B0
:10459000002318460837BD4680BD80B582B000AF05
:1045A00078607B6893F812217B6883F813217B681D
:1045B000042283F812217B68D3F8E835DB6898473A
:1045C000002318460837BD4680BD80B582B000AFD5
:1045D00078607B68D3F8E435DB69002B05D07B6815
:1045E000D3F8E435DB697868984700231846083724
:1045F000BD4680BD80B582B000AF78600B46FB70D1
:104600007B68D3F8E4351B68FA78114678689847D8
:104610007B68D3F8E8359B6898470023184608372D
:10462000BD4680BD80B582B000AF78600B46FB70A0
:104630007B68D3F8E4355B68FA7811467868984768
:10464000002318460837BD4680BD80B582B000AF54
:1046500078607B68D3F8E4351B6A78689847002354
:1046600018460837BD4680BD80B582B000AF78607F
:104670007B68D3F8E4355B6A78689847002318466E
:104680000837BD4680BD000080B500AF44F287000A
:1046900034F0D0FB40F6331034F0CCFB40F637104A
:1046A00034F0C8FB40F6211034F0C4FB40F6021091
:1046B00034F0C0FB44F2850034F0BCFB44F28400CB
:1046C00034F0B8FB44F2670034F0B4FB40F63C1021
:1046D00034F0B0FB40F6091034F0ACFB40F67F102C
:1046E00034F0A8FB40F67D1034F0A4FB44F26300E4
:1046F00034F0A0FB44F2620034F09CFB44F28300EF
:1047000034F098FB40F6081034F094FB40F63D106E
:1047100034F090FB40F67E1034F08CFB40F629100C
:1047200034F088FB4FF4814034F084FB44F2810084
:1047300034F080FB40F6171034F07CFB40F6361066
:1047400034F078FB44F26C0034F074FB40F66E10E9
:1047500034F070FB40F66D1034F06CFB44F26900ED
:1047600034F068FB44F26A0034F064FB234B40F2FF
:1047700023121A60214B1B68184634F05BFB40F68D
:10478000561034F057FB1E4834F054FB1D4834F0EB
:1047900051FB1D4834F04EFB1C4834F04BFB1C48C9
:1047A00034F048FB1B4834F045FB1B4834F042FB17
:1047B0001A4834F03FFB1A4834F03CFB194834F0F7
:1047C00039FB44F2600034F035FB44F2240034F04D
:1047D00031FB154834F02EFB144834F02BFB42F625
:1047E000091034F027FB42F62B1034F023FB43F67C
:1047F000351034F01FFB00BF80BD00BF0440002017
:1048000018420900190209001542090016020900A0
:104810001B0207001A02070001020800000208003C
:1048200027020800260208000B0E0A000C0E0A00E0
:1048300080B483B000AF03463960FB7197F907304D
:10484000002B0BDA0D49FB7903F00F03043B3A68A8
:10485000D2B21201D2B20B441A7609E0084997F994
:1048600007303A68D2B21201D2B20B4483F8002367
:1048700000BF0C37BD465DF8047B704700ED00E0DB
:1048800000E100E080B400AFBFF34F8F0549054B56
:10489000DB6803F4E062044B1343CB60BFF34F8F3C
:1048A000FEE700BF00ED00E00400FA0580B582B02D
:1048B00000AF78607B68B3F1807F01D3012311E002
:1048C0000A4A7B6823F07F43013B53600E214FF07F
:1048D000FF30FFF7ADFF054B00229A60034B072224
:1048E0001A60002318460837BD4680BD10E000E07E
:1048F00080B586B000AF7F4B03F589433C331A681F
:104900007C4B03F5894308331B6892FBF3F103FBEF
:1049100001F3D31AFB60FB68002B28D12DF090F92E
:104920000246744B03F5894340331A60714B03F51B
:10493000894340331B68B3F1FF3F18D16D4B03F53A
:104940008C43163301221A706A4B03F58843743383
:104950001B78002B01D0FEF79FFA664B03F58943C5
:1049600078331A68634B03F5894340331A60614B0F
:1049700003F589433C331A685E4B03F589433433AE
:104980001B689A420BDB5B4B03F589433C331A6887
:10499000584B03F5894338331B689A4206DD554B63
:1049A00003F5894378331B687B6105E0514B03F5C0
:1049B000894340331B687B614E4B03F589430833C1
:1049C0001B681A46FB68D31A5A1E4A4B03F58943E3
:1049D00004331B6803FB02F3BB607A69BB68DA40EF
:1049E000444B03F5894344331B6813407B61414BBF
:1049F00003F58C4311331B78002B11D03D4A7B69A2
:104A0000134403F58A4304331B7807EE903AB8EE5B
:104A1000677ADFED396AC7EE267AC7ED047A15E0CA
:104A20007B6907EE903AF8EE676A324B03F58943EB
:104A300004331B68012202FA03F3013B07EE903AAC
:104A4000B8EEE77AC6EE877AC7ED047A294B03F50C
:104A50008C4313331B78002B07D0B7EE007AD7EDC9
:104A6000047A77EE677AC7ED047A244B93ED007AE7
:104A7000D7ED047A67EE277AB7EE001ADFED200A49
:104A8000B0EE670AFFF751F987ED010A194B03F5FC
:104A90008C430433D3ED007AF0EE670A97ED010AF8
:104AA00034F0ACFE87ED010A124B03F589437433F1
:104AB000D3ED007AB0EE671ADFED110A97ED010A27
:104AC000FFF733F987ED010A0A4B03F589433C33BD
:104AD0001B685A1C074B03F589433C331A60054B8E
:104AE00003F58C430C337A681A6000BF1837BD4653
:104AF00080BD00BFB059002000007F430C40002063
:104B00000000000080B500AF374B03F58943143334
:104B10001B68002B61DD344B03F589431C331B6894
:104B2000002B22D1304B03F5894314331A682E4BE6
:104B300003F5894310331B689A4216D12A4B03F5BB
:104B40008C430C33D3ED007AB0EE670A31F0AEFA45
:104B5000254B03F58C4316331B78002B05D0224BD5
:104B600003F58C43143300221A701F4B03F589435D
:104B700014331B685A1E1C4B03F5894314331A6007
:104B8000194B03F5894314331B68002B29D1164BAD
:104B900003F589430C331A68134B03F58943143327
:104BA0001A60114B03F589431C331B68002B0ADD87
:104BB0000D4B03F589431C331B685A1E0A4B03F542
:104BC00089431C331A60084B03F589431C331B6867
:104BD000002B06D1FFF78CFE03E09FED040A31F0B5
:104BE00065FA00BF80BD00BFB05900200000000082
:104BF00080B588B000AF7C4B1B8A9BB203F00103E9
:104C0000002B00F08481784B9B899BB203F0010359
:104C1000002B00F07C81754B1B78002B01D118F024
:104C200011FB734B1B68DA6A714B1B689B6AD31AC2
:104C300007EE903AF8EEE77AC7ED067A6D4BD3F8B7
:104C4000F83F1B7A03F00403DBB2002B1CD0684B47
:104C50001B689A6A664B1B68D3F8B4309A4213D12A
:104C6000654B1B68184631F03FFC624BD3F8F82FB8
:104C7000137A43F0080313725D4B1B68D3F8B83006
:104C8000002B01D11DF066F90023FB611CE15B4A9A
:104C9000FB6952F823307B617B699B6A002B00F033
:104CA0001081534B1B687A699A4222D17B6993F831
:104CB0009830002B40F005817B69012283F8982011
:104CC0007B69D3F850337A69D2F85023928A92B232
:104CD00042F0010292B29A827B69D3F850337A692A
:104CE000D2F85023128892B242F0010292B21A8096
:104CF000E7E07B6993F89830002B40F083807B6974
:104D0000DA6A7B699B6AD31A07EE903AB8EEE77AC3
:104D10007B69D3ED247A27EE277A7B69D3ED257A58
:104D200077EE277AC7ED047A97ED047AD7ED067A05
:104D300077EE677AB7EE007AF4EEC77AF1EE10FA02
:104D400040F1BF8097ED047AD7ED067A37EE677AA7
:104D5000274B1B68D3ED217A67EE277AF0EE670ABE
:104D60009FED270A34F05CFB87ED030A7B6993ED26
:104D7000D57AD7ED037A67EE277AFCEEE77A17EE5D
:104D8000903A19460220FEF7A5FFB8607B69D3F878
:104D900050337B60BB681B149AB27B681A857B68B2
:104DA0001B8D9BB20133BA6892FBF3F3013B1A46A9
:104DB0007B68DA627B689B8A9BB243F001039AB2FC
:104DC0007B689A827B684FF6FE721A827B690122A9
:104DD00083F898207B681B889BB243F001039AB24A
:104DE0007B681A806DE000BF00000140F1120020D6
:104DF000C40D0120A4490020FC130020C80D01208F
:104E0000000000007B69DA6A7B699B6AD31A07EEAF
:104E1000903AB8EEE77A7B69D3ED247A27EE277AC9
:104E20007B69D3ED257A77EE277AC7ED047A97ED83
:104E3000047AD7ED067A37EE677A414B1B68D3EDDB
:104E4000217A67EE277AF0EE670A9FED3E0A34F08A
:104E5000E7FA87ED030A7B6993EDD57AD7ED037AFC
:104E600067EE277AFCEEE77A17EE903A19460220B1
:104E7000FEF730FFB860344B7B60BB681B149AB2FE
:104E80007B681A857B681B8D9BB20133BA6892FBE5
:104E9000F3F3013B1A467B68DA627B689B8A9BB21C
:104EA00043F001039AB27B689A827B684FF6FE72E8
:104EB0001A827B681B889BB243F001039AB27B681D
:104EC0001A80FB690133FB61204B1B68FA699A4227
:104ED000FFF6DDAE1E4B1B78002B12D11C4B0122BE
:104EE0001A701C4A1B4B9B8A9BB243F001039BB276
:104EF0009382184A174B1B889BB243F001039BB265
:104F00001380154B4FF6FE721A8200BF14E0134B4C
:104F10001B8A9BB203F00103002B0DD00F4B9B8922
:104F20009BB203F00103002B06D00D4819F026FCBC
:104F30000A4B4FF6FE721A8200BF2037BD4680BD75
:104F4000C40D012000000000AC1A0020C00D01209B
:104F5000F112002000140040000001400044014014
:104F6000CCAD002080B500AF0B4B1B8A9BB203F089
:104F70000103002B0DD0084B9B899BB203F001036A
:104F8000002B06D0054819F0F9FB034B4FF6FE72D3
:104F90001A8200BF80BD00BF004001406CAA002003
:104FA00080B500AF0B4B1B8A9BB203F00103002BB3
:104FB0000DD0084B9B899BB203F00103002B06D058
:104FC000054819F0DBFB034B4FF6FE721A8200BF57
:104FD00080BD00BF004801402CB1002080B500AF6B
:104FE0000121064833F096FE0346002B03D0012131
:104FF000024833F0B9FE00BF80BD00BF000400408E
:1050000080B500AF0121064833F084FE0346002B33
:1050100003D00121024833F0A7FE00BF80BD00BFCE
:105020000008004098B500AF10210C4833F072FE24
:105030000346002B0FD00A4B1C68631C084A136000
:10504000064833F011FE0246064B43F82420102197
:10505000024833F089FE00BF98BD00BF000C00403D
:10506000181300201C13002080B500AF2D4B1B8AA5
:105070009BB203F00103002B52D02A4B9B899BB2B9
:1050800003F00103002B4BD0274B5B699B6A002B7D
:1050900002D0254B00221A61234B1B69002B0AD139
:1050A000214BDB68204AD268128892B222F00102BA
:1050B00092B21A8034E01C4B5B6903F54C731846BE
:1050C00007F03AFA184B1B69002B05DA164B1B69DF
:1050D0000133154A136108E0134B1B69002B04DDF3
:1050E000114B1B69013B104A13610F4B1B69002BCD
:1050F00009D10D4BDB680C4AD268128892B222F0BB
:10510000010292B21A8001F077F8074B5B6903F550
:105110004C73184607F033FA024B4FF6FE721A82B0
:1051200000BF80BD001000408007002080B500AFA8
:105130001E4B1B8A9BB203F00103002B34D01B4B88
:105140009B899BB203F00103002B2DD0184B1B78D9
:10515000002B25D1174B1B78002B10D0164B1B684A
:10516000184619F0FBF80346002B04D0124B1B68BD
:10517000184618F091FD0F4B00221A7008E00F4BF3
:105180009B79002B04D00D4B00229A711FF042F83E
:10519000064A064B1B889BB223F001039BB2138087
:1051A000024B4FF6FE721A8200BF80BD0014004011
:1051B000F0120020F1120020C40D01209C070020F5
:1051C00080B500AF0F4B1B8A9BB203F00103002B8D
:1051D00016D00C4B9B899BB203F00103002B0FD020
:1051E000094819F0CBFA094B03F58C4314331B78AB
:1051F000002B01D0FFF786FC024B4FF6FE721A829D
:1052000000BF80BD001800404CA00020B059002015
:1052100080B500AF0B4B1B8A9BB203F00103002B40
:105220000DD0084B9B899BB203F00103002B06D0E5
:10523000054819F0A3FA034B4FF6FE721A8200BF1D
:1052400080BD00BF001C0040ACA3002080B500AFB3
:105250000B4B1B8A9BB203F00103002B0DD0084BB4
:105260009B899BB203F00103002B06D0054819F07F
:1052700085FA034B4FF6FE721A8200BF80BD00BF55
:10528000002000400CA7002080B584B000AF7860FB
:105290000B46FB707B681B889BB203F00803002B56
:1052A00022D07B689B889BB2FB73FB7B072B02D0D1
:1052B000FB7B082B03D1FB7818462DF073FF1B4BAB
:1052C0001B78FA789A4203D1FB7B18462DF0A8F997
:1052D000174B1B680133164A1360164B01221A70D4
:1052E0007B684FF6F7721A807B681B889BB203F0CD
:1052F0002003002B16D07B689B889BB2BB73BB7BC3
:10530000072B02D0BB7B082B03D1FB7818462DF06E
:1053100049FF064B1B78FA789A4203D1BB7B1846AB
:105320002DF07EF900BF1037BD4680BDD41401209A
:10533000101300202C13002080B500AF012102487B
:10534000FFF7A2FF00BF80BD0048004080B500AF5E
:1053500002210248FFF798FF00BF80BD004C0040CB
:1053600080B500AF03210248FFF78EFF00BF80BD6C
:105370000014014080B582B000AF0E4B1B68184688
:1053800030F018F90B4B1B683B6000233B710C237A
:105390007B710023BB713B46184630F075F8064B15
:1053A0001B780F211846FEF751FC00BF0837BD4699
:1053B00080BD00BF90B400200940002080B592B0AD
:1053C00004AFF8607B600B46FB721346BB72002390
:1053D00087F83730002387F83630A24B1B78002B34
:1053E00040F0C5804FF0FF333B63FB68012B02D0D8
:1053F000022B07D00DE044F260033B63012387F8E2
:10540000373006E044F224033B63012387F837304A
:1054100000BF954A3B6B136097F83730002B00F0C4
:10542000F880386B33F0B6FD03467B62BB7A0C2BF9
:1054300005D17B6A002B02D17B68012B08D0BB7A97
:10544000082B0FD17B6A012B0CD17B68002B09D173
:105450004FF0FF320121022000F054FB002387F8B7
:105460003730D6E03B6BC3F30313DBB23B623B6BDD
:10547000C3F30303DBB21A4601239340FB613B6B8A
:10548000C3F30303DBB2BB61BB690F2B3ED801A2A0
:1054900052F823F0D5540008DD540008E554000804
:1054A000ED540008F5540008FD540008FD540008B0
:1054B000FD540008FD540008FD540008055500087F
:1054C0000555000805550008055500080555000854
:1054D00005550008062387F82F301BE0072387F8BF
:1054E0002F3017E0082387F82F3013E0092387F8BF
:1054F0002F300FE00A2387F82F300BE0172387F8AF
:105500002F3007E0282387F82F3003E0002387F8A7
:10551000373000BF97F83730002B7AD03B6ADBB2C8
:10552000BA69D2B211461846FCF730F84F4AFB6907
:1055300013604E4B1B68184630F03CF84B4B1B6811
:105540003B6100233B75BB7A7B750123BB7507F17B
:10555000100318462FF098FF454A97F82F30137024
:10556000434B1B7805211846FEF789FB51E00023C9
:1055700087F83630FB68052B38D801A252F823F0A3
:1055800099550008A7550008B5550008C3550008EF
:10559000D1550008DF550008002387F82E3001237D
:1055A00087F8363023E0012387F82E30012387F86F
:1055B00036301CE0022387F82E30012387F836307E
:1055C00015E0032387F82E30012387F836300EE0EC
:1055D000042387F82E30012387F8363007E00523AF
:1055E00087F82E30012387F8363000E000BF97F8A7
:1055F0003630002B0DD01B4B1878F97A97F82E30E7
:1056000002937B680193012300930023012230F071
:10561000A9FD97F83730002B03D197F83630002BCF
:105620000FD0144B1B68BB6206E0BB6A124ADA65F6
:10563000BB6A03F55873BB62104B1B68BA6A9A4287
:10564000F3D997F83730002B03D197F83630002B79
:1056500001D0012300E00023DBB218463837BD46F5
:1056600080BD00BFF3120020C004002090B40020D1
:1056700009400020E40D0120C1BDF0FFE00D012034
:1056800080B582B000AFFEF779FB38600B4B1B682A
:105690007B6007E07B681A6A7B68DA657B6803F5E4
:1056A00058737B60064B1B687A689A42F2D9386857
:1056B000FEF777FB00BF0837BD4680BDE40D012033
:1056C000E00D01202DE9B0432DED028B9CB006AF1B
:1056D00003463A60FB710B46BB710023BB6207F1C6
:1056E0002C0300221A605A609A60DA601A615A61CB
:1056F0009A61894BBB6007F10C0300221A605A6063
:105700009A60DA601A615A619A61FB79013B032B56
:1057100000F2E78001A252F823F000BF2D570008E5
:10572000AF570008F1570008D3570008012387F846
:105730004F307A4B1B683B650DE03B6D1A6A3B6D41
:105740009B6D9A4203D0002387F84F3008E03B6DF1
:1057500003F558733B65724B1B683A6D9A42ECD95E
:1057600097F84F30002B13D0462387F8573007F1B6
:1057700028036C4A92E8030018600433198002334E
:105780000A0C1A70FFF77CFF67482CF0C1F8ADE0F7
:105790004F2387F8573007F12803644A92E8030043
:1057A00018600433198002330A0C1A709EE04523F6
:1057B00087F8573007F128035D4A1C4615460FCD80
:1057C0000FC42B682370FFF75BFF5A482CF0A0F83A
:1057D0008CE0412387F8573007F12803564A07CA5F
:1057E00083E80700FFF74CFF54482CF091F87DE068
:1057F00007F12803524A07CA03C31A70522387F8D5
:105800005730BB79032B08D0032B02DC002B6CDB59
:1058100066E0042B33D0FF2B62E03B68B3F1FF3F1F
:105820000BD1462387F8573007F108004FF00002EC
:10583000444B454938F06EFB21E03B6807EE903A57
:10584000F8EEE77ADFED416A87EEA67AF0EE006ABD
:10585000C7EE267AC7ED127AD7ED127A9FED3C7A21
:1058600067EE877A17EE900A37F0DEFE03460C46A5
:1058700007F108001A462346334938F04BFB3B68D2
:10588000B3F1FF3F0BD1462387F8573007F10800EB
:105890004FF000022B4B2F4938F03CFB1FE03B68D8
:1058A000DB02DB123B603B6807EE903AF8EEE77AEA
:1058B0009FED297A67EE877A9FED287A67EE877ADF
:1058C00017EE900A37F0B0FE0A46014607F10800CD
:1058D0003B68009313460A46214938F01BFB00BF82
:1058E00003E02A2387F8573000E000BF97F85730CD
:1058F0001A461C491C4838F00DFB1C4B1B781A46F5
:105900001B491C4838F006FB1A49174838F056FB6B
:10591000024B1B683B6556E0203A3000E40D012045
:10592000E00D01207C69040884690408B469040856
:10593000BC690408D0690408FC690408086A040802
:10594000246A04080000F0BF306A04080000104216
:10595000B29DAF3E386A040800007E3F0AD7A33BE1
:10596000486A0408546A040854100120F312002005
:105970005C6A0408C81201203B6D5B7F002B1ED0BF
:105980003B6D5B7A1D463B6DDB6D07EE903AB8EEE2
:10599000E77A3B6DD3ED367A67EE277A17EE900AF9
:1059A00037F042FE03460C46CDE900342A464C4906
:1059B0004C4838F0AFFA4B494B4838F0FFFA3B6D92
:1059C00003F558733B65494B1B683A6D9A42D3D92E
:1059D00097F85730522B05D107F108031946424872
:1059E00038F0ECFA07F1280319463F4838F0E6FA98
:1059F0003D482BF04AFE3E4B1B68D3ED077A9FEDE6
:105A00003D7AF4EE477AF1EE10FA61D097F857300C
:105A10004F2B5AD1384B3B65354B1B683A6DD26DD5
:105A200007EE902AB8EEE77A3A6DD2ED367A67EE55
:105A3000277AC3ED197A2E4B1B682D4A126892ED16
:105A4000197A2B4A1268D2ED0E7A77EE277AC3EDD7
:105A5000197A274B1B68294ADA6025F02BFB244B67
:105A60001B68D3ED077ABDEEE78A214B1B685B6E9E
:105A7000184637F0D9FD04460D461D4B1B6893EDC3
:105A8000197A1B4B1B68D3ED0E7A77EE677A17EE07
:105A9000900A37F0C9FD80468946154B1B689B6B01
:105AA000184637F0C1FD02460B46CDE90423CDE987
:105AB0000289CDE9004518EE102A1149094838F04D
:105AC00029FA08482BF066FF02E0092004F08AF862
:105AD00000BF5837BD46BDEC028BBDE8B08300BFA8
